S01B0000536D6172745F486F6D655F4143545F546573742E73726563E4
S11300000C942A000C9447000C9447000C9447006D
S11300100C9447000C9447000C9447000C94470040
S11300200C9447000C9447000C9447000C94470030
S11300300C9447000C9447000C9447000C94470020
S11300400C9447000C9447000C9447000C94470010
S11300500C94470011241FBECFE5D8E0DEBFCDBF0E
S113006013E0A0E6B0E0E8EDFAE002C005900D92DE
S1130070AA37B107D9F723E0AAE7B3E001C01D927C
S1130080AD39B207E1F70E9418040C946A050C9488
S1130090000080EB0E94A1048F3FD9F3803A11F451
S11300A081E0089582E008950E94A6040895CF9304
S11300B0DF93EC0183E00E94A10488838F3FD1F396
S11300C084E0DF91CF910895CF93C82F8C2F0E94A5
S11300D0A1048F3FD9F3873011F485E001C08AE091
S11300E0CF910895CF93C82F8C2F0E94A1048F3FE6
S11300F0D9F38D3011F485E001C08EE0CF910895DD
S11301000E9454000E944900823029F46CE00E944D
S1130110C5040E9449008230F1F360E182E00E944C
S1130120C50408950F931F93CF938C010E94490037
S1130130C0E007C065E182E00E94C5040E94490056
S1130140CF5F813011F0C530A8F3C53041F482305F
S113015031F466E189E00E94C50483E10CC081307A
S113016049F4C8010E9457006BE182E00E94C50473
S113017084E001C083E1CF911F910F910895CF9343
S1130180C82F823189F489E00E9464008A3031F4F6
S11301906AE082E00E94C50483E123C06CE182E04E
S11301A00E94C50484E11DC088E00E9464008A3076
S11301B031F46AE082E00E94C50483E112C0853014
S11301C059F48C2F0E9472008E3031F46AE082E080
S11301D00E94C50483E105C06CE182E00E94C5046D
S11301E084E1CF910895CF930E944900C0E009C0F3
S11301F0823021F465E10E94C504C0E00E944900F8
S1130200CF5F813011F4C83098F32FEF80E792E08C
S1130210215080409040E1F700C00000CF91089544
S11302201F93CF93DF938CE793E00E94AD0110E01E
S11302301CC0812F90E0EC01CC0FDD1F880F991FAB
S1130240880F991F880F991FC80FD91FC458DC4FF6
S1130250E981FA810995EC81FD8109951B821F5F73
S11302604EE1612F8DE10E94EB04133010F3DF9116
S1130270CF911F91089590E003978330910598F5ED
S1130280262F30E0215031092330310530F5FC01AF
S1130290EE0FFF1F880F991F880F991F880F991F52
S11302A0E80FF91FE458FC4F838190E028173907C1
S11302B071F4633031F462E180E20E94C50481E0AC
S11302C008956FE18AE10E94C50483E0089562E124
S11302D080E20E94C50481E0089561E28AE10E94FF
S11302E0C50483E0089561E289E10E94C50482E0C7
S11302F008951F93CF93DF93162FC82FD0E0239731
S1130300E62FF0E0CF010197FE01EE0FFF1FEE0F85
S1130310FF1FEC0FFD1FE80FF91F3296EE0FFF1FB2
S1130320E458FC4F0190F081E02D09951150CE0165
S1130330880F991FCC0FDD1FCC0FDD1FCC0FDD1FE5
S1130340C80FD91FC458DC4F1B8363E282E20E94AA
S1130350C504DF91CF911F910895CF93DF93D0E02F
S11303603EC04D2F50E0FA01EE0FFF1F9A01220FFD
S1130370331F220F331F220F331FE20FF31FE80F27
S1130380F91F63E06D0F6295607F6083D901A05A05
S1130390BF4F2D913C9132832183C0E01DC02C2F8F
S11303A030E0D9011196FA01EE0FFF1FEE0FFF1F87
S11303B0AE0FBF1FAA0FBB1FA05ABF4F6D917C91F8
S11303C0E40FF51FE20FF31F3296EE0FFF1FE80F45
S11303D0F91F71836083CF5FC33008F3DF5FD330CD
S11303E008F4BFCFDF91CF910895FC01942F818150
S11303F041E050E09A01062E02C0220F331F0A94F6
S1130400E2F7322F3095832381838181492F50E095
S113041002C0440F551F6A95E2F74223482B4183DB
S11304200895FC01942F828141E050E09A01062E48
S113043002C0220F331F0A94E2F7322F3095832330
S113044082838281492F50E002C0440F551F6A9570
S1130450E2F74223482B42830895FC01428121E0C4
S113046030E002C0220F331F6A95E2F7242722836B
S11304700895CF93C82F40E061E086E390E00E94A6
S1130480110240E062E086E390E00E94110240E045
S113049063E086E390E00E9411028BB39C2F907F6F
S11304A08F70892B8BBB41E063E086E390E00E9470
S11304B011028FE99FE00197F1F700C0000040E0CE
S11304C063E086E390E00E94110220E1C29FC00134
S11304D011249BB39F70892B8BBB41E063E086E3BF
S11304E090E00E9411028FE99FE00197F1F700C0AC
S11304F0000040E063E086E390E00E9411028FE197
S11305009EE40197F1F700C00000CF91089541E007
S113051061E086E390E00E94F50141E062E086E359
S113052090E00E94F50141E063E086E390E00E94E0
S1130530F50141E064E089E390E00E94F50141E0C7
S113054065E089E390E00E94F50141E066E089E31B
S113055090E00E94F50141E067E089E390E00E94A9
S1130560F5012FEF81EE94E0215080409040E1F7B7
S113057000C0000083E30E94390282E30E94390232
S113058088E20E9439028CE00E94390281E00E94D4
S1130590390286E00E94390282E00E9439020895FD
S11305A0CF93C82F41E061E086E390E00E941102FE
S11305B040E062E086E390E00E94110240E063E0E4
S11305C086E390E00E9411028BB39C2F907F8F7082
S11305D0892B8BBB41E063E086E390E00E9411022B
S11305E08FE99FE00197F1F700C0000040E063E06D
S11305F086E390E00E94110220E1C29FC001112411
S11306009BB39F70892B8BBB41E063E086E390E052
S11306100E9411028FE99FE00197F1F700C00000EA
S113062040E063E086E390E00E9411028FE19EE4E3
S11306300197F1F700C00000CF910895CF92DF92A7
S1130640EF92FF921F93CF93DF936B017C01992369
S11306505CF48DE20E94D002F094E094D094C094B3
S1130660C11CD11CE11CF11CC114D104E104F1042E
S1130670F9F480E30E94D00253C0BE01660F771FD5
S1130680CC0FDD1FCC0FDD1FCC0FDD1FC60FD71F16
S1130690C701B6012AE030E040E050E00E941A05AC
S11306A0C60FD71FC22ED32EE42EF52E1F5F03C014
S11306B010E0C0E0D0E01C141D041E041F0414F458
S11306C01A30DCF211502AC09E01ADECBCEC0E9441
S11306D039059695879596958795969587959C0166
S11306E0220F331F880F991F880F991F880F991F96
S11306F0820F931F9E01281B390BC901805D0E9444
S1130700D0029E01ADECBCEC0E943905EC01D695FB
S1130710C795D695C795D695C79511501123A4F6BC
S1130720DF91CF911F91FF90EF90DF90CF900895CC
S11307300F931F93CF938C01C0E003C00E94D0029B
S1130740CF5FF801EC0FF11D80818111F7CFCF91BC
S11307501F910F910895CF93DF9300D0CDB7DEB7EB
S113076090E8998390EC9A83E1E0F0E0EC0FFD1FB0
S1130770E80FF11D8081860F0E9439020F900F90BF
S1130780DF91CF91089581E00E943902089541E0FC
S113079062E083E390E00E94F501089541E067E0A0
S11307A083E390E00E94F501089541E063E080E373
S11307B090E00E94F501089541E062E083E390E057
S11307C00E941102089541E067E083E390E00E94F3
S11307D01102089541E063E080E390E00E94110279
S11307E0089540E062E083E390E00E9411020895DE
S11307F040E067E083E390E00E941102089540E046
S113080063E080E390E00E941102089562E083E3D4
S113081090E00E942D02089567E083E390E00E9437
S11308202D02089563E080E390E00E942D02089574
S11308300E946F040E948D04FDCF61E185E20E9455
S1130840C5048AE993E00E949200833141F466E191
S11308508BE20E94C50483E180937800089580911F
S11308609A03982F92959F7090937B038F70809337
S11308707A03089560917A0380917B030E943B017F
S1130880813091F460917A0380917B030E94790115
S113089068E28AE20E94C50482E10E94BF008331BB
S11308A0A1F48093780011C0823041F48FE00E945B
S11308B0BF00833151F48093780007C080E10E9427
S11308C0BF00833111F4809378002FEF89E698E11B
S11308D0215080409040E1F700C0000008950E943C
S11308E0C2046BE085E20E94C5040E9410010E94CC
S11308F080006EE185E20E94C504089580E006C090
S1130900E82FF0E0E656FC4F10828F5F8330C0F38F
S113091010927B0310927A0308950E947E048091C2
S11309207800833129F40E94F30084E180937800F5
S113093080917800843121F40E941D040E943A04BD
S113094008958FB9779BFECF8FB1089541E066E09B
S113095086E390E00E94F50140E065E086E390E0E4
S11309600E94F50140E067E086E390E00E94F50113
S113097040E064E086E390E00E94F5018DB1846478
S11309808DB908950E9487020895CF93DF93D82FDD
S1130990C62F0E94C30320E1D29FC00111248758AF
S11309A09F4F0E94980360E081E00E94AB0320E126
S11309B0C29FC001112487589F4F0E9498038FEF54
S11309C094E32CE0815090402040E1F700C0000007
S11309D0DF91CF9108951F93CF93DF93182FD62FD4
S11309E0C42F0E94C30320E1129FC0011124875821
S11309F09F4F0E9498036D2F70E080E090E00E946A
S1130A001E0360E081E00E94AB0320E1C29FC001AD
S1130A10112487589F4F0E9498038FEF94E32CE092
S1130A20815090402040E1F700C00000DF91CF9159
S1130A301F910895052E97FB1EF400940E94310522
S1130A4057FD07D00E94480507FC03D04EF40C94D0
S1130A50310550954095309521953F4F4F4F5F4F4D
S1130A60089590958095709561957F4F8F4F9F4F16
S1130A700895A29FB001B39FC001A39F700D811D73
S1130A801124911DB29F700D811D1124911D089593
S1130A90A1E21A2EAA1BBB1BFD010DC0AA1FBB1F7E
S1130AA0EE1FFF1FA217B307E407F50720F0A21BF0
S1130AB0B30BE40BF50B661F771F881F991F1A945D
S1130AC069F760957095809590959B01AC01BD0187
S10B0AD0CF010895F894FFCF53
S1130AD8C703F103DC030604CE03F803E3030C04A1
S1130AE8D503FF03EA03120414436F6E74726F6C28
S1130AF82045435500000000004163747561746F1C
S1130B08722045435500000000436F6E74726F6C89
S1130B18204275730000000000425420506565723D
S1130B280000000000000000004254205065657277
S1130B38205061697265640000496E76616C69646D
S1130B4820505549440000000056616C69642050E7
S1130B5855494400000000000052657175657374BE
S1130B6820446F6E652100000053656E6420746F25
S1130B78204254205065657200434D4420427573E9
S1130B88205065657273000000496E76616C696473
S1130B982052657175657374215374617274696E3A
S1130BA8672E2E2E3E3E3E2E2E496E76616C69646B
S1130BB8205065657200000000536C617665205210
S1130BC86561647900000000004E6F7420436F6E05
S1130BD86E65637465640000005061697265640041
S1130BE80000000000000000004D6173746572206D
S1130BF852656164790000000070656E64696E670F
S1130C0820696E70757400000050726F63656564C6
S1130C18696E672E2E2E000000496E76616C696439
S1130C28204465766963652100496E76616C696460
S1130C38204F7074696F6E21005065657220556E7F
S1130C48617661696C61626C654E6F7420696E20AF
S1130C5853796E630000000000496E76616C696424
S1130C6820526573706F6E73655265717565737420
S1130C78696E6720526561736F44657669636520A0
S1130C8853656C6563746564004F702053656C65C7
S1130C986374656400000000004465762F4F70207B
S1130CA853656C656374656400526573706F6E7325
S1130CB8652053656E740000004465766963652099
S1130CC83A20000000000000005245414459210028
S1130CD8000000000000000000416C726561647946
S1130CE82052756E6E696E670056616C6964205394
S1130CF8656C656374696F6E00494E56414C49448E
S1130D080000000000000000004465766963652067
S1130D184F70000000000000004150504C49454409
S1130D28210000000000000000436F6E74726F6CB5
S1130D382053797374656D00004163747561746F31
S1130D48722053797374656D0053656C65637465BB
S1130D586400000000000000004F702053746174A8
S1130D6875733A2E2E00000000446F6E6521000052
S1130D7800000000000000000053656C656374699E
S1130D886F6E204552524F522152657175657374C6
S1130D983A2E2E2E00000000004354524C204143AA
S1130DA8542053797374656D0053656E6420423121
S1130DB8204661696C6564000053656E64204232A4
S1130DC8204661696C6564000053656E6420436D58
S1130DD864204661696C656400000000000000003E
S10D0DE800000000000000000000FD
S9030000FC
