S01B0000536D6172745F486F6D655F4143545F546573742E73726563E4
S11300000C942A000C9447000C9447000C9447006D
S11300100C9447000C9447000C9447000C94470040
S11300200C9447000C9447000C9447000C94470030
S11300300C9447000C9447000C9447000C94470020
S11300400C9447000C9447000C9447000C94470010
S11300500C94470011241FBECFE5D8E0DEBFCDBF0E
S113006010E0A0E6B0E0ECEAFBE002C005900D92DF
S1130070A83AB107D9F720E0A8EAB0E001C01D9280
S1130080AA3CB207E1F70E9471040C94D4050C94C5
S113009000000E946F0540E067E080E390E00E946A
S11300A042020895CF93DF931F92CDB7DEB7198232
S11300B0AE014F5F5F4F67E080E390E00E947A02F9
S11300C089810F90DF91CF910895CF930E94ED0421
S11300D080EA0E940405C82F8823D1F30E94FD04FE
S11300E0C03B11F481E001C082E0CF9108950E94E9
S11300F0C2040895CF93DF93D82F0E946500823005
S113010061F00E94ED048D2F0E940405C82F8823FE
S1130110D1F30E94FD048C2F01C08BE0DF91CF91BD
S11301200895CF93DF93EC010E946500823051F073
S11301300E94ED0483E00E94040588830E94FD046C
S113014084E001C08BE0DF91CF910895CF93DF93DA
S1130150D82F0E946500823071F00E94ED048D2F2B
S11301600E940405C82F8823D1F30E94FD04C630E1
S113017021F485E003C08BE001C089E0DF91CF91D9
S113018008950E94770004C06CE082E00E941A0582
S11301900E9465008230C1F36DE082E00E941A057E
S11301A00E94490004C06EE083E00E941A050E9488
S11301B052008823C1F36FE083E00E941A0508957A
S11301C0CF93DF93EC010E9491000DC065E182E0C2
S11301D00E941A05CE010E949100EFE5FAEE3197D4
S11301E0F1F700C000008B3089F36BE182E00E94DC
S11301F01A05DF91CF9108950F931F93CF938C012C
S1130200FC0180818830B9F4F80180810E94A60045
S1130210C82F8B3029F465E182E00E941A0506C0DC
S1130220893021F46AE082E00E941A05CB3061F340
S1130230C93051F324C087E00E94A600C82F8B3038
S113024029F465E182E00E941A0506C0893021F490
S11302506AE082E00E941A05CB3069F3C93059F391
S1130260F80180810E947A00F80180810E947A005E
S1130270C82F65E182E00E941A05CB30A9F36CE136
S113028082E00E941A05CF911F910F9108950F9358
S11302901F93CF93DF93CDB7DEB768970FB6F8946B
S11302A0DEBF0FBECDBF28E1E0E9F0E0DE0111962C
S11302B001900D922A95E1F770E046C0472F50E077
S11302C0FA01EE0FFF1F9A01220F331F220F331F73
S11302D0220F331FE20FF31FE80FF91F67E0670FC8
S11302E06295607F6083A1E0B0E0AC0FBD1FA20FF8
S11302F0B31F2D913C913283218360E022C0262FCD
S113030030E0D9011196FA01EE0FFF1FEE0FFF1F27
S1130310AE0FBF1FAA0FBB1F01E010E00C0F1D1F83
S1130320A00FB11F0D90BC91A02DE40FF51FE20F9B
S1130330F31F3296EE0FFF1FE80FF91FB183A0835E
S11303406F5F6330E0F27F5F733008F4B7CF689675
S11303500FB6F894DEBF0FBECDBFDF91CF911F91D2
S11303600F9108951F93CF93DF9310E01CC0812F4A
S113037090E0EC01CC0FDD1F880F991F880F991FA7
S1130380880F991FC80FD91FC655DF4FE981FA811D
S11303900995EC81FD8109951B821F5F4EE1612F58
S11303A08DE10E944005133010F3DF91CF911F912E
S11303B0089590E007978330910550F570E06750F9
S11303C0710963307105F0F4FC01EE0FFF1F880F13
S11303D0991F880F991F880F991FE80FF91FE65579
S11303E0FF4F838190E06817790731F46FE18AE168
S11303F00E941A0584E0089562E180E20E941A05D1
S113040081E0089561E28AE10E941A0584E008957A
S113041061E289E10E941A0583E008951F93CF9356
S1130420DF93162FC82FD0E02797E62FF0E0CF01F7
S11304300797FE01EE0FFF1FEE0FFF1FEC0FFD1FCE
S1130440E80FF91F3296EE0FFF1FE655FF4F01909C
S1130450F081E02D09951750CE01880F991FCC0F1C
S1130460DD1FCC0FDD1FCC0FDD1FC80FD91FC655F4
S1130470DF4F1B8363E282E20E941A05DF91CF9172
S11304801F910895FC01942F818141E050E09A016D
S1130490062E02C0220F331F0A94E2F7322F309542
S11304A0832381838181492F50E002C0440F551F6B
S11304B06A95E2F74223482B41830895FC01942F67
S11304C0828141E050E09A01062E02C0220F331FC0
S11304D00A94E2F7322F3095832382838281492F55
S11304E050E002C0440F551F6A95E2F74223482B9F
S11304F042830895FC01808190E002C09595879520
S11305006A95E2F78170FA0180830895FC014281C3
S113051021E030E002C0220F331F6A95E2F724275E
S113052022830895CF93C82F40E061E086E390E0F2
S11305300E945E0240E062E086E390E00E945E0278
S113054040E063E086E390E00E945E028BB39C2F60
S1130550907F8F70892B8BBB41E063E086E390E052
S11305600E945E028FE99FE00197F1F700C000004E
S113057040E063E086E390E00E945E0220E1C29FD7
S1130580C00111249BB39F70892B8BBB41E063E0B6
S113059086E390E00E945E028FE99FE00197F1F705
S11305A000C0000040E063E086E390E00E945E0249
S11305B08FE19EE40197F1F700C00000CF91089508
S11305C041E061E086E390E00E94420241E062E0A3
S11305D086E390E00E94420241E063E086E390E01B
S11305E00E94420241E064E089E390E00E944202FA
S11305F041E065E089E390E00E94420241E066E068
S113060089E390E00E94420241E067E089E390E0E0
S11306100E9442022FEF81EE94E0215080409040EE
S1130620E1F700C0000083E30E94920282E30E948B
S1130630920288E20E9492028CE00E94920281E07F
S11306400E94920286E00E94920282E00E9492023C
S11306500895CF93C82F41E061E086E390E00E94C3
S11306605E0240E062E086E390E00E945E0240E0C9
S113067063E086E390E00E945E028BB39C2F907F40
S11306808F70892B8BBB41E063E086E390E00E948E
S11306905E028FE99FE00197F1F700C0000040E09F
S11306A063E086E390E00E945E0220E1C29FC00105
S11306B011249BB39F70892B8BBB41E063E086E3DD
S11306C090E00E945E028FE99FE00197F1F700C07D
S11306D0000040E063E086E390E00E945E028FE168
S11306E09EE40197F1F700C00000CF910895CF92E6
S11306F0DF92EF92FF921F93CF93DF936B017C0104
S113070099235CF48DE20E942903F094E094D09440
S1130710C094C11CD11CE11CF11CC114D104E1041E
S1130720F104F9F480E30E94290353C0BE01660F6B
S1130730771FCC0FDD1FCC0FDD1FCC0FDD1FC60FC5
S1130740D71FC701B6012AE030E040E050E00E9424
S11307508405C60FD71FC22ED32EE42EF52E1F5F9D
S113076003C010E0C0E0D0E01C141D041E041F04EC
S113077014F41A30DCF211502AC09E01ADECBCEC2A
S11307800E94A30596958795969587959695879546
S11307909C01220F331F880F991F880F991F880F00
S11307A0991F820F931F9E01281B390BC901805D7D
S11307B00E9429039E01ADECBCEC0E94A305EC0150
S11307C0D695C795D695C795D695C795115011233B
S11307D0A4F6DF91CF911F91FF90EF90DF90CF901F
S11307E008950F931F93CF938C01C0E003C00E9420
S11307F02903CF5FF801EC0FF11D80818111F7CF40
S1130800CF911F910F910895CF93DF9300D0CDB76F
S1130810DEB790E8998390EC9A83E1E0F0E0EC0F86
S1130820FD1FE80FF11D8081860F0E9492020F9038
S11308300F90DF91CF91089581E00E949202089574
S113084041E062E083E390E00E944202089541E0C7
S113085067E083E390E00E944202089541E063E090
S113086080E390E00E944202089541E062E083E365
S113087090E00E945E02089541E067E083E390E027
S11308800E945E02089541E063E080E390E00E94EC
S11308905E02089540E062E083E390E00E945E021D
S11308A0089540E067E083E390E00E945E020895CB
S11308B040E063E080E390E00E945E02089562E01D
S11308C083E390E00E948602089567E083E390E06A
S11308D00E948602089563E080E390E00E9486020D
S11308E008950E94AA040E94BD04FDCF88EC90E004
S11308F00E94E0008091C800982F92959F70909379
S1130900A9008F708093A8000895CF93DF931F925E
S1130910CDB7DEB787E089836091A8008091A900F4
S11309200E94D9018983813051F46091A80080919B
S1130930A9000E940E0268E28AE20E941A058981D7
S1130940895F8983CE0101960E94FC000F90DF919C
S1130950CF9108950E94E0026BE085E20E941A059F
S11309608AEA90E00E9447010E94B2010E94C100FD
S11309706EE185E20E941A0508950E9476040E94A1
S11309808504089541E065E086E390E00E94420218
S113099041E067E086E390E00E94420241E064E0C7
S11309A086E390E00E9442028DB184618DB98DB1DD
S11309B083608DB98DB180648DB941E064E086E3D4
S11309C090E00E945E022FEF86E791E02150804084
S11309D09040E1F700C00000089540E064E086E341
S11309E090E00E945E022FEF86E791E02150804064
S11309F09040E1F700C00000089541E064E086E320
S1130A0090E00E945E020895CF93C82F0E94ED04E7
S1130A10CFB981E001C08F5F779902C08111FBCF0C
S1130A20882311F0CFB101C0C0E00E94FD048C2FD7
S1130A30CF910895CF93DF93D82FC62F0E941C0423
S1130A4020E1D29FC0011124805A9F4F0E94F103DC
S1130A5060E081E00E94040420E1C29FC0011124EF
S1130A60805A9F4F0E94F1038FEF96E121E181505C
S1130A7090402040E1F700C00000DF91CF9108953D
S1130A801F93CF93DF93182FD62FC42F0E941C04DB
S1130A9020E1129FC0011124805A9F4F0E94F1034C
S1130AA06D2F70E080E090E00E94770360E081E0C9
S1130AB00E94040420E1C29FC0011124805A9F4F68
S1130AC00E94F1038FEF96E121E181509040204094
S1130AD0E1F700C00000DF91CF911F91089541E03C
S1130AE060E080E390E00E94420240E061E080E345
S1130AF090E00E9442028AB188618AB980B5866812
S1130B0080BD87E689B90895052E97FB1EF40094ED
S1130B100E949B0557FD07D00E94B20507FC03D035
S1130B204EF40C949B0550954095309521953F4F7C
S1130B304F4F5F4F089590958095709561957F4FC5
S1130B408F4F9F4F0895A29FB001B39FC001A39FF1
S1130B50700D811D1124911DB29F700D811D1124F2
S1130B60911D0895A1E21A2EAA1BBB1BFD010DC005
S1130B70AA1FBB1FEE1FFF1FA217B307E407F50749
S1130B8020F0A21BB30BE40BF50B661F771F881F25
S1130B90991F1A9469F760957095809590959B01BB
S10F0BA0AC01BD01CF010895F894FFCF13
S1130BAC55557372644444217273212E72796464B2
S1130BBC79742E21216563656E64646474202167E5
S1130BCC6E4470216D6D2E642E21212E6D0000005B
S1130BDC20044A0435045F04270451043C046504CE
S10B0BEC2E04580443046B04B9
S9030000FC
