S01B0000536D6172745F486F6D655F4143545F546573742E73726563E4
S11300000C942A000C9447000C9447000C9447006D
S11300100C9447000C9447000C9447000C94470040
S11300200C9447000C9447000C9447000C94470030
S11300300C9447000C9447000C9447000C94470020
S11300400C9447000C9447000C9447000C94470010
S11300500C94470011241FBECFE5D8E0DEBFCDBF0E
S113006013E0A0E6B0E0ECE2FBE002C005900D92E4
S1130070AA37B107D9F723E0AAE7B3E001C01D927C
S1130080AD39B207E1F70E9464040C9494050C9412
S1130090000080EB0E94CB04803A11F481E00895C3
S11300A082E008950E94D0040895CF93DF93EC0179
S11300B083E00E94CB0488838F3FD1F384E0DF91F7
S11300C0CF9108951F93CF93DF93182FC0E0D0E012
S11300D0812F0E94CB042196873011F02097C1F71D
S11300E0873011F485E001C08AE0DF91CF911F9140
S11300F008951F93CF93DF93182FC0E0D0E0812F92
S11301000E94CB0421968D3011F02097C1F78D30D9
S113011011F485E001C08EE0DF91CF911F91089525
S11301200E9452000E944900823029F46CE00E942F
S1130130EF040E9449008230F1F360E182E00E9402
S1130140EF0408950F931F93CF938C010E944900ED
S1130150823029F465E10E94EF040E944900C0E066
S11301600CC00E944900C43039F4823029F466E19D
S113017089E00E94EF0483E1CF5F813011F0C53044
S113018080F3813049F4C8010E9455006BE182E09C
S11301900E94EF0484E001C083E1CF911F910F918D
S11301A008950F931F93CF93DF938C01FC018081FB
S11301B08231F9F40E946200D82F8A3021F46AE077
S11301C082E00E94EF04C0E00EC0C93031F4DA309E
S11301D021F466E189E00E94EF04F80180810E9425
S11301E06200D82FCF5FDA3009F041C0CA3068F31B
S11301F03EC088E00E946200D82F8A3021F46AE071
S113020082E00E94EF04C0E00DC0C93031F4DA305E
S113021021F466E189E00E94EF0488E00E94620014
S1130220D82FCF5FDA3011F4CA3078F3D530F9F42F
S1130230F80180810E947900D82F8E3021F46AE081
S113024082E00E94EF04C0E00EC0C93031F4DE3019
S113025021F466E189E00E94EF04F80180810E94A4
S11302607900D82FCF5FDE3011F4CA3070F383E108
S1130270F8018083DF91CF911F910F910895CF935F
S11302800E944900C0E009C0823021F465E10E9467
S1130290EF04C0E00E944900CF5F813011F4C83000
S11302A098F32FEF80E792E0215080409040E1F7EF
S11302B000C00000CF9108951F93CF93DF938CE784
S11302C093E00E94F90110E01CC0812F90E0EC0142
S11302D0CC0FDD1F880F991F880F991F880F991F56
S11302E0C80FD91FC458DC4FE981FA810995EC8104
S11302F0FD8109951B821F5F4EE1612F8DE10E94F4
S11303001505133010F3DF91CF911F91089590E0FC
S113031007978330910598F570E067507109633051
S1130320710538F562307105F4F4FC01EE0FFF1F1E
S1130330880F991F880F991F880F991FE80FF91FBD
S1130340E458FC4F838190E06817790731F46FE13A
S11303508AE10E94EF0483E0089562E180E20E9452
S1130360EF0481E0089562E180E20E94EF0481E0FD
S1130370089561E28AE10E94EF0483E0089561E256
S113038089E10E94EF0482E008951F93CF93DF93E5
S1130390162FC82FD0E02797E62FF0E0CF0107975C
S11303A0FE01EE0FFF1FEE0FFF1FEC0FFD1FE80F06
S11303B0F91F3296EE0FFF1FE458FC4F0190F081B5
S11303C0E02D09951750CE01880F991FCC0FDD1F22
S11303D0CC0FDD1FCC0FDD1FC80FD91FC458DC4F55
S11303E01B8363E282E20E94EF04DF91CF911F91AD
S11303F00895CF93DF93D0E03EC04D2F50E0FA0133
S1130400EE0FFF1F9A01220F331F220F331F220FFB
S1130410331FE20FF31FE80FF91F67E06D0F6295BA
S1130420607F6083D901A05ABF4F2D913C913283E4
S11304302183C0E01DC02C2F30E0D9011196FA01B0
S1130440EE0FFF1FEE0FFF1FAE0FBF1FAA0FBB1F44
S1130450A05ABF4F6D917C91E40FF51FE20FF31F7B
S11304603296EE0FFF1FE80FF91F71836083CF5F91
S1130470C33008F3DF5FD33008F4BFCFDF91CF91EF
S11304800895FC01942F818141E050E09A01062EE9
S113049002C0220F331F0A94E2F7322F30958323D0
S11304A081838181492F50E002C0440F551F6A9512
S11304B0E2F74223482B41830895FC01942F828163
S11304C041E050E09A01062E02C0220F331F0A9425
S11304D0E2F7322F3095832382838281492F50E0C3
S11304E002C0440F551F6A95E2F74223482B42830A
S11304F00895FC01428121E030E002C0220F331F45
S11305006A95E2F7242722830895CF93C82F40E009
S113051061E086E390E00E945D0240E062E086E3F1
S113052090E00E945D0240E063E086E390E00E9478
S11305305D028BB39C2F907F8F70892B8BBB41E026
S113054063E086E390E00E945D028FE99FE00197FB
S1130550F1F700C0000040E063E086E390E00E9411
S11305605D0220E1C29FC00111249BB39F70892BBF
S11305708BBB41E063E086E390E00E945D028FE97B
S11305809FE00197F1F700C0000040E063E086E3DC
S113059090E00E945D028FE19EE40197F1F700C0B4
S11305A00000CF91089541E061E086E390E00E946D
S11305B0410241E062E086E390E00E94410241E0B2
S11305C063E086E390E00E94410241E064E089E355
S11305D090E00E94410241E065E089E390E00E94DE
S11305E0410241E066E089E390E00E94410241E07B
S11305F067E089E390E00E9441022FEF81EE94E0EE
S1130600215080409040E1F700C0000083E30E9445
S1130610850282E30E94850288E20E9485028CE0C2
S11306200E94850281E00E94850286E00E94850284
S113063082E00E9485020895CF93C82F41E061E0D3
S113064086E390E00E945D0240E062E086E390E091
S11306500E945D0240E063E086E390E00E945D0258
S11306608BB39C2F907F8F70892B8BBB41E063E011
S113067086E390E00E945D028FE99FE00197F1F725
S113068000C0000040E063E086E390E00E945D0269
S113069020E1C29FC00111249BB39F70892B8BBBA7
S11306A041E063E086E390E00E945D028FE99FE011
S11306B00197F1F700C0000040E063E086E390E0BA
S11306C00E945D028FE19EE40197F1F700C00000F3
S11306D0CF910895CF92DF92EF92FF921F93CF9321
S11306E0DF936B017C0199235CF48DE20E941C036F
S11306F0F094E094D094C094C11CD11CE11CF11C72
S1130700C114D104E104F104F9F480E30E941C0350
S113071053C0BE01660F771FCC0FDD1FCC0FDD1F4A
S1130720CC0FDD1FC60FD71FC701B6012AE030E08A
S113073040E050E00E944405C60FD71FC22ED32EBE
S1130740E42EF52E1F5F03C010E0C0E0D0E01C14BF
S11307501D041E041F0414F41A30DCF211502AC0C4
S11307609E01ADECBCEC0E94630596958795969529
S11307708795969587959C01220F331F880F991FA3
S1130780880F991F880F991F820F931F9E01281BA2
S1130790390BC901805D0E941C039E01ADECBCECC9
S11307A00E946305EC01D695C795D695C795D69555
S11307B0C79511501123A4F6DF91CF911F91FF909B
S11307C0EF90DF90CF9008950F931F93CF938C01F8
S11307D0C0E003C00E941C03CF5FF801EC0FF11DC1
S11307E080818111F7CFCF911F910F910895CF93FD
S11307F0DF9300D0CDB7DEB790E8998390EC9A836D
S1130800E1E0F0E0EC0FFD1FE80FF11D8081860FA1
S11308100E9485020F900F90DF91CF91089581E09F
S11308200E948502089541E062E083E390E00E9423
S11308304102089541E067E083E390E00E944102B1
S1130840089541E063E080E390E00E94410208954E
S113085041E062E083E390E00E945D02089541E09C
S113086067E083E390E00E945D02089541E063E065
S113087080E390E00E945D02089540E062E083E33B
S113088090E00E945D02089540E067E083E390E019
S11308900E945D02089540E063E080E390E00E94DE
S11308A05D02089562E083E390E00E947902089576
S11308B067E083E390E00E947902089563E080E3B7
S11308C090E00E94790208950E94AD040E94BC0445
S11308D0FDCF61E185E20E94EF048AE993E00E9482
S11308E0A200833141F466E18BE20E94EF0483E1CC
S11308F080937800089580919A03982F92959F7021
S113090090937B038F7080937A030895CF93DF9342
S11309101F92CDB7DEB786E0898360917A03809118
S11309207B030E9487018983813051F460917A03AB
S113093080917B030E94C50168E28AE20E94EF0471
S1130940CE0101960E94D1008981833111F48093F4
S113095078000F90DF91CF9108950E94EC046BE032
S113096085E20E94EF040E945C010E9490006EE107
S113097085E20E94EF04089580917800833111F498
S11309800E943F010E94690480917800843111F42F
S11309900E94860408958FB9779BFECF8FB1089586
S11309A041E066E086E390E00E94410240E065E0B9
S11309B086E390E00E94410240E067E086E390E035
S11309C00E94410240E064E086E390E00E9441021C
S11309D08DB184648DB908950E94D3020895CF9394
S11309E0DF93D82FC62F0E940F0420E1D29FC001AD
S11309F0112487589F4F0E94E40360E081E00E9425
S1130A00F70320E1C29FC001112487589F4F0E9421
S1130A10E4038FEF94E32CE0815090402040E1F711
S1130A2000C00000DF91CF9108951F93CF93DF930F
S1130A30182FD62FC42F0E940F0420E1129FC0014B
S1130A40112487589F4F0E94E4036D2F70E080E0CB
S1130A5090E00E946A0360E081E00E94F70320E1D5
S1130A60C29FC001112487589F4F0E94E4038FEF57
S1130A7094E32CE0815090402040E1F700C0000056
S1130A80DF91CF911F910895052E97FB1EF40094DA
S1130A900E945B0557FD07D00E94720507FC03D036
S1130AA04EF40C945B0550954095309521953F4F3D
S1130AB04F4F5F4F089590958095709561957F4F46
S1130AC08F4F9F4F0895A29FB001B39FC001A39F72
S1130AD0700D811D1124911DB29F700D811D112473
S1130AE0911D0895A1E21A2EAA1BBB1BFD010DC086
S1130AF0AA1FBB1FEE1FFF1FA217B307E407F507CA
S1130B0020F0A21BB30BE40BF50B661F771F881FA5
S1130B10991F1A9469F760957095809590959B013B
S10F0B20AC01BD01CF010895F894FFCF93
S1130B2C13043D04280452041A0444042F045804E6
S1130B3C21044B0436045E0414436F6E74726F6CA0
S1130B4C2045435500000000004163747561746FC7
S1130B5C722045435500000000436F6E74726F6C35
S1130B6C20427573000000000042542050656572E9
S1130B7C0000000000000000004254205065657223
S1130B8C205061697265640000496E76616C696419
S1130B9C20505549440000000056616C6964205093
S1130BAC554944000000000000526571756573746A
S1130BBC20446F6E652100000053656E6420746FD1
S1130BCC204254205065657200434D442042757395
S1130BDC205065657273000000496E76616C69641F
S1130BEC2052657175657374215374617274696EE6
S1130BFC672E2E2E3E3E3E2E2E496E76616C696417
S1130C0C205065657200000000536C6176652052BB
S1130C1C6561647900000000004E6F7420436F6EB0
S1130C2C6E656374656400000050616972656400EC
S1130C3C0000000000000000004D61737465722018
S1130C4C52656164790000000070656E64696E67BA
S1130C5C20696E70757400000050726F6365656472
S1130C6C696E672E2E2E000000496E76616C6964E5
S1130C7C204465766963652100496E76616C69640C
S1130C8C204F7074696F6E21005065657220556E2B
S1130C9C617661696C61626C654E6F7420696E205B
S1130CAC53796E630000000000496E76616C6964D0
S1130CBC20526573706F6E736552657175657374CC
S1130CCC696E6720526561736F446576696365204C
S1130CDC53656C6563746564004F702053656C6573
S1130CEC6374656400000000004465762F4F702027
S1130CFC53656C656374656400526573706F6E73D1
S1130D0C652053656E740000004465766963652044
S1130D1C3A200000000000000052454144592100D3
S1130D2C000000000000000000416C7265616479F1
S1130D3C2052756E6E696E670056616C696420533F
S1130D4C656C656374696F6E00494E56414C494439
S1130D5C0000000000000000004465766963652013
S1130D6C4F70000000000000004150504C494544B5
S1130D7C210000000000000000436F6E74726F6C61
S1130D8C2053797374656D00004163747561746FDD
S1130D9C722053797374656D0053656C6563746567
S1130DAC6400000000000000004F70205374617454
S1130DBC75733A2E2E00000000446F6E65210000FE
S1130DCC00000000000000000053656C656374694A
S1130DDC6F6E204552524F52215265717565737472
S1130DEC3A2E2E2E00000000004354524C20414356
S1130DFC542053797374656D0053656E64204231CD
S1130E0C204661696C6564000053656E642042324F
S1130E1C204661696C6564000053656E6420436D03
S1130E2C64204661696C65640000000000000000E9
S10D0E3C00000000000000000000A8
S9030000FC
