:100000000C942A000C9447000C9447000C94470071
:100010000C9447000C9447000C9447000C94470044
:100020000C9447000C9447000C9447000C94470034
:100030000C9447000C9447000C9447000C94470024
:100040000C9447000C9447000C9447000C94470014
:100050000C94470011241FBECFE5D8E0DEBFCDBF12
:1000600013E0A0E6B0E0E4EBFAE002C005900D92E8
:10007000A834B107D9F723E0A8E4B3E001C01D928A
:10008000AB36B207E1F70E9427040C9458050C9494
:100090000000CF930E9478042FEF86E791E0215073
:1000A00080409040E1F700C0000080EB0E948F0488
:1000B000C82F882389F30E948804C03A11F481E094
:1000C00001C082E0CF9108950E94A6040895CF93C5
:1000D000DF93D82F0E944900823061F00E9478049B
:1000E0008D2F0E948F04C82F8823D1F30E9488048B
:1000F0008C2F01C08BE0DF91CF910895CF93DF93D8
:10010000EC010E944900823051F00E94780483E0A3
:100110000E948F0488830E94880484E001C08BE0E1
:10012000DF91CF910895CF93DF93D82F0E9449009C
:10013000823071F00E9478048D2F0E948F04C82FA6
:100140008823D1F30E948804C63021F485E003C0DF
:100150008BE001C089E0DF91CF9108950E94640097
:1001600004C06CE082E00E94B3040E944900823027
:10017000C1F360E182E00E94B3040895CF93DF935E
:10018000EC010E947E0010C065E182E00E94B30491
:10019000CE010E947E002FEF36E791E021503040E3
:1001A0009040E1F700C000008B3071F36BE182E01A
:1001B0000E94B304DF91CF9108950F931F93CF93C3
:1001C0008C01FC0180818830B9F4F80180810E94A3
:1001D0009300C82F8B3029F465E182E00E94B304BC
:1001E00006C0893021F46AE082E00E94B304CB307B
:1001F00061F3C93051F324C087E00E949300C82FF7
:100200008B3029F465E182E00E94B30406C0893096
:1002100021F46AE082E00E94B304CB3069F3C93074
:1002200059F3F80180810E946700F80180810E94E3
:100230006700C82F65E182E00E94B304CB30A9F3C8
:100240006CE182E00E94B304CF911F910F91089559
:100250001F93CF93DF938AE493E00E94BC0110E0E8
:100260001CC0812F90E0EC01CC0FDD1F880F991F7F
:10027000880F991F880F991FC80FD91FC65BDC4FC5
:10028000E981FA810995EC81FD8109951B821F5F47
:100290004EE1612F8DE10E94D904133010F3DF91FC
:1002A000CF911F91089590E007978330910550F505
:1002B00070E06750710963307105F0F4FC01EE0FD6
:1002C000FF1F880F991F880F991F880F991FE80F2C
:1002D000F91FE65BFC4F838190E06817790731F4E2
:1002E0006FE18AE10E94B30484E0089562E180E254
:1002F0000E94B30481E0089561E28AE10E94B304A0
:1003000084E0089561E289E10E94B30483E00895E6
:100310001F93CF93DF93162FC82FD0E02797E62F98
:10032000F0E0CF010797FE01EE0FFF1FEE0FFF1F5A
:10033000EC0FFD1FE80FF91F3296EE0FFF1FE65B73
:10034000FC4F0190F081E02D09951750CE01880FE8
:10035000991FCC0FDD1FCC0FDD1FCC0FDD1FC80F89
:10036000D91FC65BDC4F1B8363E282E20E94B304A9
:10037000DF91CF911F910895CF93DF93D0E03EC0DE
:100380004D2F50E0FA01EE0FFF1F9A01220F331F8D
:10039000220F331F220F331FE20FF31FE80FF91F45
:1003A00067E06D0F6295607F6083D901A05ABF4FEF
:1003B0002D913C9132832183C0E01DC02C2F30E071
:1003C000D9011196FA01EE0FFF1FEE0FFF1FAE0FBE
:1003D000BF1FAA0FBB1FA05ABF4F6D917C91E40FA6
:1003E000F51FE20FF31F3296EE0FFF1FE80FF91F04
:1003F00071836083CF5FC33008F3DF5FD33008F4CD
:10040000BFCFDF91CF910895FC01942F818141E00E
:1004100050E09A01062E02C0220F331F0A94E2F721
:10042000322F3095832381838181492F50E002C090
:10043000440F551F6A95E2F74223482B41830895E4
:10044000FC01942F828141E050E09A01062E02C007
:10045000220F331F0A94E2F7322F309583238283D1
:100460008281492F50E002C0440F551F6A95E2F780
:100470004223482B42830895FC01428121E030E071
:1004800002C0220F331F6A95E2F7242722830895C2
:10049000CF93C82F40E061E086E390E00E94200205
:1004A00040E062E086E390E00E94200240E063E0EA
:1004B00086E390E00E9420028BB39C2F907F8F7088
:1004C000892B8BBB41E063E086E390E00E94200231
:1004D0008FE99FE00197F1F700C0000040E063E082
:1004E00086E390E00E94200220E1C29FC001112417
:1004F0009BB39F70892B8BBB41E063E086E390E068
:100500000E9420028FE99FE00197F1F700C00000F0
:1005100040E063E086E390E00E9420028FE19EE4E9
:100520000197F1F700C00000CF91089541E061E02C
:1005300086E390E00E94040241E062E086E390E0FE
:100540000E94040241E063E086E390E00E9404021E
:1005500041E064E089E390E00E94040241E065E04C
:1005600089E390E00E94040241E066E089E390E0C4
:100570000E94040241E067E089E390E00E940402E7
:100580002FEF81EE94E0215080409040E1F700C0D1
:10059000000083E30E94480282E30E94480288E24E
:1005A0000E9448028CE00E94480281E00E944802BA
:1005B00086E00E94480282E00E9448020895CF939C
:1005C000C82F41E061E086E390E00E94200240E015
:1005D00062E086E390E00E94200240E063E086E370
:1005E00090E00E9420028BB39C2F907F8F70892B0C
:1005F0008BBB41E063E086E390E00E9420028FE93C
:100600009FE00197F1F700C0000040E063E086E35F
:1006100090E00E94200220E1C29FC00111249BB300
:100620009F70892B8BBB41E063E086E390E00E94E2
:1006300020028FE99FE00197F1F700C0000040E041
:1006400063E086E390E00E9420028FE19EE4019740
:10065000F1F700C00000CF910895CF92DF92EF92A2
:10066000FF921F93CF93DF936B017C0199235CF47E
:100670008DE20E94DF02F094E094D094C094C11CFB
:10068000D11CE11CF11CC114D104E104F104F9F402
:1006900080E30E94DF0253C0BE01660F771FCC0FBC
:1006A000DD1FCC0FDD1FCC0FDD1FC60FD71FC7010D
:1006B000B6012AE030E040E050E00E940805C60F95
:1006C000D71FC22ED32EE42EF52E1F5F03C010E0DD
:1006D000C0E0D0E01C141D041E041F0414F41A30E2
:1006E000DCF211502AC09E01ADECBCEC0E94270543
:1006F0009695879596958795969587959C01220F57
:10070000331F880F991F880F991F880F991F820F19
:10071000931F9E01281B390BC901805D0E94DF02D7
:100720009E01ADECBCEC0E942705EC01D695C79567
:10073000D695C795D695C79511501123A4F6DF918C
:10074000CF911F91FF90EF90DF90CF9008950F937E
:100750001F93CF938C01C0E003C00E94DF02CF5FE4
:10076000F801EC0FF11D80818111F7CFCF911F911E
:100770000F910895CF93DF9300D0CDB7DEB790E807
:10078000998390EC9A83E1E0F0E0EC0FFD1FE80F15
:10079000F11D8081860F0E9448020F900F90DF911B
:1007A000CF91089581E00E944802089541E062E0FF
:1007B00083E390E00E940402089541E067E083E350
:1007C00090E00E940402089541E063E080E390E03D
:1007D0000E940402089541E062E083E390E00E94F9
:1007E0002002089541E067E083E390E00E94200248
:1007F000089541E063E080E390E00E9420020895C4
:1008000040E062E083E390E00E942002089540E02F
:1008100067E083E390E00E942002089540E063E0F7
:1008200080E390E00E942002089562E083E390E07C
:100830000E943C02089567E083E390E00E943C023E
:10084000089563E080E390E00E943C0208950E94D6
:1008500064040E947304FDCF61E185E20E94B30449
:1008600088E693E00E94BE0080916803982F9295DD
:100870009F70909349038F70809348030895CF939E
:10088000DF931F92CDB7DEB787E08983609148037D
:10089000809149030E9453018983813051F4609112
:1008A0004803809149030E94880168E28AE20E941D
:1008B000B3048981895F8983CE0101960E94DD009E
:1008C0000F90DF91CF9108950E94B0046BE085E214
:1008D0000E94B3040E9428010E94AE006EE185E2EE
:1008E0000E94B30408950E942C040E943F040895BE
:1008F00040E064E086E390E00E9420022FEF86E76C
:1009000091E0215080409040E1F700C00000089540
:1009100041E064E086E390E00E9420020895CF93D6
:10092000C82F0E947804CFB981E090E001C0019601
:10093000779902C00097D9F7892B11F0CFB101C088
:10094000C0E00E9488048C2FCF91089541E066E0BA
:1009500086E390E00E9404028DB184648DB908950D
:100960000E9496020895CF93DF93D82FC62F0E943E
:10097000D20320E1D29FC001112488589F4F0E94CA
:10098000A70360E081E00E94BA0320E1C29FC0019A
:10099000112488589F4F0E94A7038FEF96E121E111
:1009A000815090402040E1F700C00000DF91CF91DE
:1009B00008951F93CF93DF93182FD62FC42F0E9433
:1009C000D20320E1129FC001112488589F4F0E943A
:1009D000A7036D2F70E080E090E00E942D0360E09F
:1009E00081E00E94BA0320E1C29FC001112488580F
:1009F0009F4F0E94A7038FEF96E121E18150904025
:100A00002040E1F700C00000DF91CF911F910895D1
:100A1000052E97FB1EF400940E941F0557FD07D07A
:100A20000E94360507FC03D04EF40C941F05509528
:100A30004095309521953F4F4F4F5F4F08959095CA
:100A40008095709561957F4F8F4F9F4F0895A29F1E
:100A5000B001B39FC001A39F700D811D1124911D92
:100A6000B29F700D811D1124911D0895A1E21A2ECF
:100A7000AA1BBB1BFD010DC0AA1FBB1FEE1FFF1F42
:100A8000A217B307E407F50720F0A21BB30BE40B92
:100A9000F50B661F771F881F991F1A9469F76095D9
:100AA0007095809590959B01AC01BD01CF01089593
:040AB000F894FFCFE8
:100AB400D6030004EB031504DD030704F2031B044F
:100AC400E4030E04F9032104436F6E74726F6C2007
:100AD40045435500000000004163747561746F72F2
:100AE4002045435500000000436F6E74726F6C2004
:100AF4004275730000000000425420506565720086
:100B0400000000000000000042542050656572207F
:100B14005061697265640000496E76616C69642095
:100B2400505549440000000056616C6964205055DA
:100B3400494400000000000052657175657374201B
:100B4400446F6E652100000053656E6420746F204D
:100B54004254205065657200434D44204275732011
:100B64005065657273000000496E76616C6964209B
:100B740052657175657374215374617274696E671B
:100B84002E2E2E3E3E3E2E2E496E76616C696420DA
:100B94005065657200000000536C617665205265F3
:100BA40061647900000000004E6F7420436F6E6E24
:100BB40065637465640000005061697265640000D7
:100BC40000000000000000004D6173746572205243
:100BD400656164790000000070656E64696E672069
:100BE400696E70757400000050726F6365656469A6
:100BF4006E672E2E2E000000496E76616C696420AB
:100C04004465766963652100496E76616C69642088
:100C14004F7074696F6E21005065657220556E6166
:100C24007661696C61626C654E6F7420696E2053E5
:100C3400796E630000000000496E76616C6964207F
:100C4400526573706F6E73655265717565737469FF
:100C54006E6720526561736F4465766963652053DE
:100C6400656C6563746564004F702053656C6563DF
:100C740074656400000000004465762F4F702053B3
:100C8400656C656374656400526573706F6E73653B
:100C94002053656E74000000446576696365202DF9
:100CA400200000000000000052454144592100008A
:100CB4000000000000000000416C7265616479204E
:100CC40052756E6E696E670056616C696420536577
:100CD4006C656374696F6E00494E56414C4944001B
:100CE4000000000000000000446576696365204F41
:100CF40070000000000000004150504C4945442160
:100D04000000000000000000436F6E74726F6C20DE
:100D140053797374656D00004163747561746F7207
:100D24002053797374656D0053656C6563746564F1
:100D340000000000000000004F70205374617475BF
:100D4400733A2E2E00000000446F6E6521000000EF
:100D5400000000000000000053656C656374696F57
:100D64006E204552524F5221526571756573743A23
:100D74002E2E2E00000000004354524C20414354B8
:100D84002053797374656D000000000000000000BA
:080D9400000000000000000057
:00000001FF
