:100000000C942A000C9447000C9447000C94470071
:100010000C9447000C9447000C9447000C94470044
:100020000C9447000C9447000C9447000C94470034
:100030000C9447000C9447000C9447000C94470024
:100040000C9447000C9447000C9447000C94470014
:100050000C94470011241FBECFE5D8E0DEBFCDBF12
:1000600010E0A0E6B0E0ECEEFDE002C005900D92DD
:10007000A837B107D9F720E0A8E7B0E001C01D928A
:10008000AA39B207E1F70E94A6050C94F4060C9475
:1000900000000E948F0640E067E080E390E00E944D
:1000A00077030895CF93DF931F92CDB7DEB7198200
:1000B000AE014F5F5F4F67E080E390E00E94AF03C7
:1000C00089810F90DF91CF910895CF930E946B06A5
:1000D00080EA0E948206C82F0E947B06C03B21F066
:1000E000C11104C080E003C081E001C082E0CF9173
:1000F00008950E943A060895CF93DF93D82F0E9467
:1001000065008823E1F3823061F00E946B068D2F39
:100110000E948206C82F8823D1F30E947B068C2F71
:1001200001C08BE0DF91CF910895CF93DF93EC0175
:100130000E9465008823E1F3823051F00E946B0633
:1001400083E00E94820688830E947B0684E001C0CF
:100150008BE0DF91CF910895CF93DF93D82F0E944A
:1001600065008823E1F3823071F00E946B068D2FC9
:100170000E948206C82F8823D1F30E947B06C630D6
:1001800021F485E003C08BE001C089E0DF91CF91CD
:1001900008950E9479000E9465008230D9F40E947F
:1001A000510583E795E70E94260560E081E00E9403
:1001B000390582E795E60E9426052FEF89EF90E04A
:1001C000215080409040E1F700C000000E9465008F
:1001D0008230E1F30E94510583E795E70E942605EE
:1001E00060E081E00E94390589E794E60E942605D7
:1001F0002FEF89EF90E0215080409040E1F700C060
:1002000000000E9449000E94520081111BC00E9400
:10021000510582E795E60E94260560E081E00E9494
:10022000390584E695E60E9426052FEF89EF90E0D8
:10023000215080409040E1F700C000000E94520031
:100240008823E1F30E94510582E795E60E94260586
:1002500064E081E00E94390584E695E60E94260567
:100260002FEF89EF90E0215080409040E1F700C0EF
:1002700000000895CF93DF93EC010E94950017C012
:100280000E94510583E795E70E94260560E081E022
:100290000E94390585E69CE60E942605CE010E9453
:1002A0009500EFE3FCE93197F1F700C000008B30D7
:1002B00039F38430A1F40E94510583E795E70E9449
:1002C000260560E081E00E94390584E695E60E94FB
:1002D00026058FE39CE90197F1F700C00000DF914C
:1002E000CF9108950F931F93CF938C01FC018081D0
:1002F000883059F50E94AC00C82F22C00E945105D9
:1003000083E795E70E94260560E081E00E943905B9
:10031000CB3029F485E69CE60E94260506C0C9304C
:1003200021F484E793E70E9426058FE39CE9019777
:10033000F1F700C00000F80180810E94AC00C82FD6
:10034000CB30E1F2C930D1F249C087E00E94AC0065
:10035000C82F21C00E94510583E795E70E9426051A
:1003600060E081E00E943905CB3029F485E69CE607
:100370000E94260506C0C93021F484E793E70E9455
:1003800026058FE39CE90197F1F700C0000087E0A4
:100390000E94AC00C82FCB30E9F2C930D9F2F80185
:1003A00080810E947C0018C00E94510583E795E778
:1003B0000E94260560E081E00E94390585E69CE602
:1003C0000E9426058FE39CE90197F1F700C0000029
:1003D000F80180810E947C008B3031F3CF911F9116
:1003E0000F9108950F931F93CF93DF93CDB7DEB78F
:1003F00068970FB6F894DEBF0FBECDBF28E1E0E6E8
:10040000F0E0DE01119601900D922A95E1F770E07F
:1004100046C0472F50E0FA01EE0FFF1F9A01220F4E
:10042000331F220F331F220F331FE20FF31FE80F7A
:10043000F91F67E0670F6295607F6083A1E0B0E01D
:10044000AC0FBD1FA20FB31F2D913C9132832183AE
:1004500060E022C0262F30E0D9011196FA01EE0F9C
:10046000FF1FEE0FFF1FAE0FBF1FAA0FBB1F01E044
:1004700010E00C0F1D1FA00FB11F0D90BC91A02DFF
:10048000E40FF51FE20FF31F3296EE0FFF1FE80F88
:10049000F91FB183A0836F5F6330E0F27F5F733039
:1004A00008F4B7CF68960FB6F894DEBF0FBECDBF85
:1004B000DF91CF911F910F910895FF920F931F939A
:1004C000CF93DF93F12C3FC0CF2DD0E08E01000FF2
:1004D000111FCE01880F991F880F991F880F991F30
:1004E000080F191F06581F4FD8011196ED91FC9166
:1004F00012970995D8011496ED91FC9115970995DD
:10050000F80113820E94510580E295E60E942605BB
:10051000BE016F5F7F4F072E000C880B990B0E9466
:10052000AC0464E081E00E94390581E299E50E9413
:100530002605FFEF29EF80E0F15020408040E1F7F1
:1005400000C00000F39492E09F1508F0BDCFDF914A
:10055000CF911F910F91FF90089590E007978330FE
:10056000910508F064C070E067507109633071054F
:1005700008F044C0FC01EE0FFF1F880F991F880F81
:10058000991F880F991FE80FF91FE658FF4F8381C5
:1005900090E068177907C9F40E94510584E695E652
:1005A0000E94260560E081E00E94390587E69EE60C
:1005B0000E9426052FEF89EF90E021508040904067
:1005C000E1F700C0000084E008950E94510584E72F
:1005D00093E60E94260564E081E00E9439058EE2E0
:1005E0009EE20E9426052FEF89EF90E02150804087
:1005F0009040E1F700C0000081E008950E9451059D
:1006000084E695E60E94260565E081E00E943905B2
:1006100084E499E40E9426052FEF89EF90E02150B1
:1006200080409040E1F700C0000084E008950E94FF
:10063000510584E695E60E94260565E081E00E946A
:10064000390584E499E40E9426052FEF89EF90E0B4
:10065000215080409040E1F700C0000083E0089501
:100660001F93CF93DF93162FC82FD0E02797E62F45
:10067000F0E0CF010797FE01EE0FFF1FEE0FFF1F07
:10068000EC0FFD1FE80FF91F3296EE0FFF1FE65823
:10069000FF4F0190F081E02D09951750CE01880F92
:1006A000991FCC0FDD1FCC0FDD1FCC0FDD1FC80F36
:1006B000D91FC658DF4F1B830E94510580E79FE476
:1006C0000E94260564E081E00E94390581E294E4FD
:1006D0000E9426052FEF89EF90E021508040904046
:1006E000E1F700C00000DF91CF911F910895FC0158
:1006F000942F818141E050E09A01062E02C0220F22
:10070000331F0A94E2F7322F30958323818381814E
:10071000492F50E002C0440F551F6A95E2F742236B
:10072000482B41830895FC01942F828141E050E0E1
:100730009A01062E02C0220F331F0A94E2F7322FCD
:100740003095832382838281492F50E002C0440F79
:10075000551F6A95E2F74223482B42830895FC0116
:10076000808190E002C0959587956A95E2F7817047
:10077000FA0180830895FC01428121E030E002C04B
:10078000220F331F6A95E2F7242722830895CF931F
:10079000C82F40E061E086E390E00E94930340E0D0
:1007A00062E086E390E00E94930340E063E086E32A
:1007B00090E00E9493038BB39C2F907F8F70892BC6
:1007C0008BBB41E063E086E390E00E9493038FE9F6
:1007D0009FE00197F1F700C0000040E063E086E38E
:1007E00090E00E94930320E1C29FC00111249BB3BB
:1007F0009F70892B8BBB41E063E086E390E00E9411
:1008000093038FE99FE00197F1F700C0000040E0FB
:1008100063E086E390E00E9493038FE19EE40197FA
:10082000F1F700C00000CF91089541E061E086E358
:1008300090E00E94770341E062E086E390E00E944E
:10084000770341E063E086E390E00E94770341E0B4
:1008500064E089E390E00E94770341E065E089E38A
:1008600090E00E94770341E066E089E390E00E9417
:10087000770341E067E089E390E00E9477032FEF80
:1008800081EE94E0215080409040E1F700C00000EC
:1008900083E30E94C70382E30E94C70388E20E94A9
:1008A000C7038CE00E94C70381E00E94C70386E073
:1008B0000E94C70382E00E94C7030895CF93C82F08
:1008C00041E061E086E390E00E94930340E062E053
:1008D00086E390E00E94930340E063E086E390E0CB
:1008E0000E9493038BB39C2F907F8F70892B8BBBBF
:1008F00041E063E086E390E00E9493038FE99FE08C
:100900000197F1F700C0000040E063E086E390E06B
:100910000E94930320E1C29FC00111249BB39F70EA
:10092000892B8BBB41E063E086E390E00E94930358
:100930008FE99FE00197F1F700C0000040E063E01D
:1009400086E390E00E9493038FE19EE40197F1F724
:1009500000C00000CF910895CF92DF92EF92FF92F6
:100960001F93CF93DF936B017C0199235CF48DE29D
:100970000E945E04F094E094D094C094C11CD11CF9
:10098000E11CF11CC114D104E104F104F9F480E389
:100990000E945E0453C0BE01660F771FCC0FDD1F9F
:1009A000CC0FDD1FCC0FDD1FC60FD71FC701B6014F
:1009B0002AE030E040E050E00E94A406C60FD71FB6
:1009C000C22ED32EE42EF52E1F5F03C010E0C0E030
:1009D000D0E01C141D041E041F0414F41A30DCF2B1
:1009E00011502AC09E01ADECBCEC0E94C306969546
:1009F000879596958795969587959C01220F331F2D
:100A0000880F991F880F991F880F991F820F931FB6
:100A10009E01281B390BC901805D0E945E049E0166
:100A2000ADECBCEC0E94C306EC01D695C795D695FB
:100A3000C795D695C79511501123A4F6DF91CF9194
:100A40001F91FF90EF90DF90CF9008950F931F9329
:100A5000CF938C01C0E003C00E945E04CF5FF80119
:100A6000EC0FF11D80818111F7CFCF911F910F9174
:100A70000895CF93DF9300D0CDB7DEB790E8998388
:100A800090EC9A83E1E0F0E0EC0FFD1FE80FF11D20
:100A90008081860F0E94C7030F900F90DF91CF9146
:100AA000089581E00E94C703089541E062E083E376
:100AB00090E00E947703089541E067E083E390E0CF
:100AC0000E947703089541E063E080E390E00E9494
:100AD0007703089541E062E083E390E00E9493038E
:100AE000089541E067E083E390E00E949303089556
:100AF00041E063E080E390E00E949303089540E0CA
:100B000062E083E390E00E949303089540E067E091
:100B100083E390E00E949303089540E063E080E364
:100B200090E00E949303089562E083E390E00E94C6
:100B3000BB03089567E083E390E00E94BB03089540
:100B400063E080E390E00E94BB0308950E94F205F9
:100B50000E943506FDCF88E990E00E943A0180911D
:100B60009800982F92959F70909379008F70809342
:100B700078000895CF93DF931F92CDB7DEB787E05B
:100B8000898360917800809179000E94AD02898309
:100B90008130E9F460917800809179000E943003FF
:100BA0000E9451058EE29EE20E94260565E081E0EA
:100BB0000E94390581E295E60E9426052FEF81EE1D
:100BC00094E0215080409040E1F700C0000089810E
:100BD000895F8983CE0101960E9472010F90DF9197
:100BE000CF9108950E9415040E94510563E080E0B2
:100BF0000E9439058DE695E60E94260565E081E0B4
:100C00000E9439058EE29EE20E9426058FE39CE950
:100C10000197F1F700C000008AE790E00E94F2011E
:100C20000E945D020E94C9009FEF29EF80E0915071
:100C300020408040E1F700C000000E9451058DE691
:100C400095E60E94260565E081E00E9439058EE266
:100C500099E70E9426059FEF29EF80E09150204000
:100C60008040E1F700C0000008950E94AB050E949B
:100C7000BA05089540E066E086E390E00E947703BD
:100C800041E065E086E390E00E94770341E067E0A1
:100C900086E390E00E94770341E064E086E390E021
:100CA0000E9477038DB180618DB98DB183608DB95C
:100CB0008DB180648DB941E064E086E390E00E94EC
:100CC00093032FEF86E791E0215080409040E1F7B9
:100CD00000C00000089540E064E086E390E00E94D8
:100CE00093032FEF86E791E0215080409040E1F799
:100CF00000C00000089541E064E086E390E00E94B7
:100D000093030895CF93C82F0E946B06CFB9779BAA
:100D1000FECFCFB10E947B068C2FCF91089541E08A
:100D200060E080E390E00E94770340E061E080E3D0
:100D300090E00E9477038AB188618AB980B586689D
:100D400080BD87E689B90895052E97FB1EF40094AF
:100D50000E94BB0657FD07D00E94D20607FC03D0B5
:100D60004EF40C94BB0650954095309521953F4F1D
:100D70004F4F5F4F089590958095709561957F4F87
:100D80008F4F9F4F0895A29FB001B39FC001A39FB3
:100D9000700D811D1124911DB29F700D811D1124B4
:100DA000911D0895A1E21A2EAA1BBB1BFD010DC0C7
:100DB000AA1FBB1FEE1FFF1FA217B307E407F5070B
:100DC00020F0A21BB30BE40BF50B661F771F881FE7
:100DD000991F1A9469F760957095809590959B017D
:0C0DE000AC01BD01CF010895F894FFCFD5
:100DEC0055057F056A0594055C05860571059A0510
:080DFC0063058D057805A005D3
:00000001FF
