:100000000C942A000C9447000C9447000C94470071
:100010000C9447000C9447000C9447000C94470044
:100020000C9447000C9447000C9447000C94470034
:100030000C9447000C9447000C9447000C94470024
:100040000C9447000C9447000C9447000C94470014
:100050000C94470011241FBECFE5D8E0DEBFCDBF12
:1000600010E0A0E6B0E0E0EDFAE002C005900D92ED
:10007000A036B107D9F720E0A0E6B0E001C01D929C
:10008000A236B207E1F70E94FA030C9466050C94BD
:1000900000000E94100540E067E080E390E00E94CD
:1000A000A2020895CF93DF931F92CDB7DEB71982D6
:1000B000AE014F5F5F4F67E080E390E00E94DA029D
:1000C00089810F90DF91CF910895CF93C82F0E941F
:1000D00052008823E1F38C2F0E942505CF910895CB
:1000E000CF93DF93EC010E9452008823E1F3CE010D
:1000F0000E945305DF91CF910895CF93DF93EC01D8
:100100000E9452008823E1F3CE010E943305DF9163
:10011000CF910895CF930E94EC0480EA0E940305DA
:10012000C82F0E94FC04C03B21F0C11104C080E034
:1001300003C081E001C082E0CF9108950E94BB041A
:100140000895CF93DF93D82F0E948A008823E1F38C
:10015000823061F00E94EC048D2F0E940305C82FAD
:100160008823D1F30E94FC048C2F01C08BE0DF9127
:10017000CF910895CF93DF93EC010E948A008823EA
:10018000E1F3823071F00E94EC0486E00E940305E6
:1001900088830E94FC0488818750823020F484E0A8
:1001A00003C08BE001C08AE0DF91CF9108950E94E7
:1001B0009E000E948A008230D9F40E94F60383E7F1
:1001C00095E70E94CB0360E081E00E94DE0382E7B6
:1001D00095E60E94CB032FEF89EF90E021508040FD
:1001E0009040E1F700C000000E948A008230E1F3F5
:1001F0000E94F60383E795E70E94CB0360E081E06D
:100200000E94DE0389E794E60E94CB032FEF89EF7B
:1002100090E0215080409040E1F700C000000E9433
:1002200049000E94520081111BC00E94F60382E720
:1002300095E60E94CB0360E081E00E94DE0384E645
:1002400095E60E94CB032FEF89EF90E0215080408C
:100250009040E1F700C000000E9452008823E1F3C3
:100260000E94F60382E795E60E94CB0364E081E0FA
:100270000E94DE0384E695E60E94CB032FEF89EF10
:1002800090E0215080409040E1F700C000000895C8
:10029000CF93DF9300D0CDB7DEB79A8389830E94D6
:1002A000520081111BC00E94F60382E795E60E946E
:1002B000CB0360E081E00E94DE0384E695E60E94C5
:1002C000CB032FEF89EF90E0215080409040E1F781
:1002D00000C000000E9452008823E1F30E94F60350
:1002E00084E695E60E94CB0360E081E00E94DE0395
:1002F00084E795E70E94CB032FEF89EF90E0215030
:1003000080409040E1F700C00000CE0101960E94BD
:100310007D00E981FA818081883A01F30E94F60329
:1003200084E499E40E94CB032FEF89EF90E0215001
:1003300080409040E1F700C00000D0CFCF93C82F9D
:100340000E946500C830C9F481E295E60E94700001
:100350000E94F60382E795E60E94CB0360E081E00D
:100360000E94DE0381E295E60E94CB038FE39CE9C5
:100370000197F1F700C0000033C0CA30C9F481E230
:1003800094E60E9470000E94F60382E795E60E94C0
:10039000CB0360E081E00E94DE0381E295E60E94EB
:1003A000CB038FE39CE90197F1F700C0000018C070
:1003B00081E294E60E9470000E94F60382E795E6CF
:1003C0000E94CB0360E081E00E94DE0381E29EE6B2
:1003D0000E94CB038FE39CE90197F1F700C0000076
:1003E000CF9108950F931F93CF93DF931F92CDB7B3
:1003F000DEB78C018AE08983F80180810E94A10028
:1004000018C00E94F60383E795E70E94CB0360E0E3
:1004100081E00E94DE0385E69CE60E94CB03F801A2
:1004200080810E94A100EFE3FCE93197F1F700C061
:1004300000008B3031F38330B1F00E94F60383E784
:1004400092E70E94CB0360E081E00E94DE0383E636
:100450009EE60E94CB038FE39CE90197F1F700C071
:10046000000017E068C0CE0101960E94BA00182F64
:1004700022C00E94F60383E795E70E94CB0360E069
:1004800081E00E94DE031B3029F485E69CE60E9491
:10049000CB0306C01A3021F485E693E70E94CB0314
:1004A000EFE3FCE93197F1F700C00000CE010196BF
:1004B0000E94BA00182F86EF810F8230D0F2198186
:1004C000183039F40E94F60381E295E60E94CB03CE
:1004D00032C0173079F50E94F60381E294E70E945A
:1004E000CB0360E081E00E94DE038EE69FE60E947F
:1004F000CB0389E00E94A100898318C00E94F60303
:1005000083E795E70E94CB0360E081E00E94DE0371
:1005100085E69CE60E94CB0389E00E94A1008983C6
:100520008FE39CE90197F1F700C0000019811B30AF
:1005300029F301C001C0812F0F90DF91CF911F914E
:100540000F910895FC01942F818141E050E09A01C0
:10055000062E02C0220F331F0A94E2F7322F309585
:10056000832381838181492F50E002C0440F551FAE
:100570006A95E2F74223482B41830895FC01942FAA
:10058000828141E050E09A01062E02C0220F331F03
:100590000A94E2F7322F3095832382838281492F98
:1005A00050E002C0440F551F6A95E2F74223482BE2
:1005B00042830895FC01808190E002C09595879563
:1005C0006A95E2F78170FA0180830895CF93C82F6E
:1005D00040E061E086E390E00E94BE0240E062E01D
:1005E00086E390E00E94BE0240E063E086E390E094
:1005F0000E94BE028BB39C2F907F8F70892B8BBB88
:1006000041E063E086E390E00E94BE028FE99FE054
:100610000197F1F700C0000040E063E086E390E05E
:100620000E94BE0220E1C29FC00111249BB39F70B3
:10063000892B8BBB41E063E086E390E00E94BE0221
:100640008FE99FE00197F1F700C0000040E063E010
:1006500086E390E00E94BE028FE19EE40197F1F7ED
:1006600000C00000CF91089541E061E086E390E092
:100670000E94A20241E062E086E390E00E94A202B2
:1006800041E063E086E390E00E94A20241E064E082
:1006900089E390E00E94A20241E065E089E390E0F6
:1006A0000E94A20241E066E089E390E00E94A2027B
:1006B00041E067E089E390E00E94A2022FEF81EE23
:1006C00094E0215080409040E1F700C0000083E3B7
:1006D0000E94E60282E30E94E60288E20E94E602AD
:1006E0008CE00E94E60281E00E94E60286E00E9421
:1006F000E60282E00E94E6020895CF93C82F41E00F
:1007000061E086E390E00E94BE0240E062E086E3A2
:1007100090E00E94BE0240E063E086E390E00E9429
:10072000BE028BB39C2F907F8F70892B8BBB41E0D7
:1007300063E086E390E00E94BE028FE99FE00197AC
:10074000F1F700C0000040E063E086E390E00E9423
:10075000BE0220E1C29FC00111249BB39F70892B70
:100760008BBB41E063E086E390E00E94BE028FE92C
:100770009FE00197F1F700C0000040E063E086E3EE
:1007800090E00E94BE028FE19EE40197F1F700C065
:100790000000CF9108950F931F93CF938C01C0E079
:1007A00003C00E947D03CF5FF801EC0FF11D808133
:1007B0008111F7CFCF911F910F910895CF93DF93C0
:1007C00000D0CDB7DEB790E8998390EC9A83E1E052
:1007D000F0E0EC0FFD1FE80FF11D8081860F0E94F5
:1007E000E6020F900F90DF91CF91089581E00E9473
:1007F000E60208950E947A040E94B604FDCF80E6C6
:1008000090E00E9448012FEF89EF90E02150804056
:100810009040E1F700C000000E94F60380E79FE4EB
:100820000E94CB0364E081E00E94DE0384E695E64B
:100830000E94CB032FEF89EF90E021508040904041
:10084000E1F700C000000895CF9380E690E00E9499
:10085000F201C82F8830C1F40E94F6038EE29EE2B6
:100860000E94CB0365E081E00E94DE0381E295E611
:100870000E94CB032FEF81EE94E021508040904006
:10088000E1F700C0000031C08A30C1F40E94F603D5
:1008900081E292E50E94CB0360E081E00E94DE03EA
:1008A00081E295E60E94CB032FEF81EE94E0215088
:1008B00080409040E1F700C0000017C00E94F6039E
:1008C00081E292E50E94CB0360E081E00E94DE03BA
:1008D00081E29EE60E94CB032FEF81EE94E021504F
:1008E00080409040E1F700C000008C2F0E949E01E4
:1008F000CF9108950E9434030E94F6038DE695E699
:100900000E94CB0365E081E00E94DE038EE29EE25E
:100910000E94CB032FEF89EF90E021508040904060
:10092000E1F700C000000E94D7002FEF89EF90E0B0
:10093000215080409040E1F700C000000E94F60383
:100940008DE695E60E94CB0365E081E00E94DE0320
:100950008EE299E70E94CB032FEF89EF90E02150C0
:1009600080409040E1F700C0000008950E94FF031E
:100970000E942404089540E066E086E390E00E942F
:10098000A20241E065E086E390E00E94A20241E01D
:1009900067E086E390E00E94A20241E064E086E323
:1009A00090E00E94A2028DB180618DB98DB183600B
:1009B0008DB98DB180648DB941E064E086E390E04B
:1009C0000E94BE022FEF86E791E0215080409040C8
:1009D000E1F700C00000089540E064E086E390E0A5
:1009E0000E94BE022FEF86E791E0215080409040A8
:1009F000E1F700C00000089541E064E086E390E084
:100A00000E94BE020895CF93C82F0E94EC04CFB974
:100A1000779BFECFCFB10E94FC048C2FCF9108951D
:100A200041E060E080E390E00E94A20240E061E0EB
:100A300080E390E00E94A2028AB188618AB980B501
:100A4000866880BD87E689B908958CB95E9BFECF24
:100A50008BB18F7B8BB908955F9BFECF8BB18F7766
:100A60008BB98CB10895EF92FF920F931F93CF93A0
:100A70008C010E942C05F8018083C0E008C0CF5F84
:100A80007801EC0EF11C0E942C05F7018083F8011F
:100A9000EC0FF11D80818111F2CFCF911F910F9149
:100AA000FF90EF9008950F931F93CF938C01C0E0B8
:100AB00003C00E942505CF5FF801EC0FF11D808176
:100AC0008111F7CFCF911F910F910895F894FFCF27
:00000001FF
