S01C0000536D6172745F486F6D655F4354524C5F546573742E7372656386
S11300000C942A000C9447000C9447000C9447006D
S11300100C9447000C9447000C9447000C94470040
S11300200C9447000C9447000C9447000C94470030
S11300300C9447000C9447000C9447000C94470020
S11300400C9447000C9447000C9447000C94470010
S11300500C94470011241FBECFE5D8E0DEBFCDBF0E
S113006013E0A0E6B0E0E0E9F8E002C005900D92EC
S1130070A236B107D9F723E0A2E6B3E001C01D928E
S1130080A536B207E1F70E9434030C9446040C949D
S113009000000E94230440E067E080E390E00E94B7
S11300A0DC010895CF93DF931F92CDB7DEB7198299
S11300B0AE014F5F5F4F67E080E390E00E9414025F
S11300C089810F90DF91CF910895CF93C82F0E941B
S11300D052008823E1F38C2F0E943804CF910895B5
S11300E0EF92FF920F931F93CF938C010E945200C3
S11300F08823E1F3C0E07801EC0EF11C0E943F0478
S1130100F7018083CF5FEC2FF0E03197E00FF11F10
S113011080818D3081F71082CF911F910F91FF90D4
S1130120EF900895CF930E94CD0380EA0E94ED03DF
S1130130C82F0E94DD03CF3FB1F3C03B11F481E02F
S113014001C082E0CF9108950E949C030895CF934B
S1130150DF93D82F0E94CD038D2F0E94ED03C82F6B
S11301600E94DD03CF3FB1F3C33011F086E001C03C
S113017085E0DF91CF910895CF93DF93EC010E9446
S1130180CD0387E00E94ED0388830E94DD0388810C
S11301908F3FA9F38850823010F484E001C08BE0D3
S11301A0DF91CF910895CF93DF93EC010E94CD03AB
S11301B08DE00E94ED0388830E94DD0388818F3FD8
S11301C0A9F38F50823010F484E001C081E1DF9103
S11301D0CF9108956EE083E00E94FD030E944900E0
S11301E00E9452008823E1F36FE083E00E94FD0344
S11301F00E94A4000E949200823029F46CE00E94C4
S1130200FD030E9492008230F1F36DE082E00E94CF
S1130210FD030895CF93DF93EC010E9452008111F6
S113022004C06EE083E00E94FD030E945200882314
S1130230E1F361E184E00E94FD03CE010E947000BD
S11302408881873331F06FE285E00E94FD038CE002
S113025001C08AE08C3069F38981888362E186E099
S11302600E94FD03DF91CF910895CF93C82F0E9480
S11302706500C23129F467E088E00E94FD030BC0E9
S1130280CF3029F463E188E00E94FD0304C064E1F7
S113029088E00E94FD03CF910895EF92FF921F938F
S11302A0CF93DF931F92CDB7DEB77C0189E08983BA
S11302B00E94920010E007C065E182E00E94FD0305
S11302C00E9492001F5F823011F41530A8F315309C
S11302D041F4823031F466E189E00E94FD0383E158
S11302E047C0813061F4F70180810E94A700863005
S11302F031F46EE282E00E94FD0383E139C0FFEF36
S113030023EE87E5F15020408040E1F700C0000073
S1130310CE0101960E94BC008B3031F467E182E08B
S11303200E94FD0383E124C08981893049F46FE28E
S113033087E00E94FD0382E1F701818384E118C014
S11303408830A9F468E18AE00E94FD03CE01019699
S11303500E94D300813131F467E182E00E94FD0301
S113036083E106C08981F701818384E101C083E1CF
S11303700F90DF91CF911F91FF90EF900895CF934D
S11303800E949200C0E009C0823021F465E10E941D
S1130390FD03C0E00E949200CF5F813011F4C830A9
S11303A098F32FEF80E792E0215080409040E1F7EE
S11303B000C00000CF910895FC01942F818141E099
S11303C050E09A01062E02C0220F331F0A94E2F76E
S11303D0322F3095832381838181492F50E002C0DD
S11303E0440F551F6A95E2F74223482B4183089531
S11303F0FC01942F828141E050E09A01062E02C054
S1130400220F331F0A94E2F7322F3095832382831D
S11304108281492F50E002C0440F551F6A95E2F7CC
S11304204223482B42830895FC01808190E002C05E
S1130430959587956A95E2F78170FA01808308950E
S1130440CF93C82F40E061E086E390E00E94F8017A
S113045040E062E086E390E00E94F80140E063E05F
S113046086E390E00E94F8018BB39C2F907F8F70FD
S1130470892B8BBB41E063E086E390E00E94F801A6
S11304808FE99FE00197F1F700C0000040E063E0CE
S113049086E390E00E94F80120E1C29FC00111248C
S11304A09BB39F70892B8BBB41E063E086E390E0B4
S11304B00E94F8018FE99FE00197F1F700C0000066
S11304C040E063E086E390E00E94F8018FE19EE45F
S11304D00197F1F700C00000CF91089541E061E079
S11304E086E390E00E94DC0141E062E086E390E074
S11304F00E94DC0141E063E086E390E00E94DC01BD
S113050041E064E089E390E00E94DC0141E065E0C1
S113051089E390E00E94DC0141E066E089E390E039
S11305200E94DC0141E067E089E390E00E94DC0185
S11305302FEF81EE94E0215080409040E1F700C01D
S1130540000083E30E94200282E30E94200288E2EA
S11305500E9420028CE00E94200281E00E9420027E
S113056086E00E94200282E00E9420020895CF9338
S1130570C82F41E061E086E390E00E94F80140E08A
S113058062E086E390E00E94F80140E063E086E3E5
S113059090E00E94F8018BB39C2F907F8F70892B81
S11305A08BBB41E063E086E390E00E94F8018FE9B1
S11305B09FE00197F1F700C0000040E063E086E3AC
S11305C090E00E94F80120E1C29FC00111249BB376
S11305D09F70892B8BBB41E063E086E390E00E942F
S11305E0F8018FE99FE00197F1F700C0000040E0B7
S11305F063E086E390E00E94F8018FE19EE40197B6
S1130600F1F700C00000CF9108950F931F93CF938B
S11306108C01C0E003C00E94B702CF5FF801EC0F69
S1130620F11D80818111F7CFCF911F910F91089512
S1130630CF93DF9300D0CDB7DEB790E8998390ECE9
S11306409A83E1E0F0E0EC0FFD1FE80FF11D8081DB
S1130650860F0E9420020F900F90DF91CF91089592
S113066081E00E94200208950E9470030E94880382
S1130670FDCF82E693E00E940A016FE28BE10E94C3
S1130680FD03089582E693E00E944D01833101F158
S113069080916303823141F468E287E20E94FD03A2
S11306A082E10E94350108958F3041F463E189E2CB
S11306B00E94FD038FE00E9435010895803179F492
S11306C064E189E20E94FD0380E10E9435010895FE
S11306D066E18BE20E94FD0383E18093600008954C
S11306E00E94FA036BE084E20E94FD030E94EA0088
S11306F06EE184E20E94FD03089580E006C0E82FC5
S1130700F0E0EE59FC4F10828F5F8330C0F3089500
S11307100E947D0380916000833129F40E94BF010F
S113072084E18093600080916000843121F40E9410
S113073039030E944203089540E066E086E390E0B6
S11307400E94DC0141E065E086E390E00E94DC0168
S113075041E067E086E390E00E94DC0141E064E070
S113076086E390E00E94DC018DB184618DB98DB186
S113077083608DB98DB180648DB941E064E086E316
S113078090E00E94F8012FEF86E791E0215080402D
S11307909040E1F700C00000089540E064E086E383
S11307A090E00E94F8012FEF86E791E0215080400D
S11307B09040E1F700C0000008952FEF86E791E034
S11307C0215080409040E1F700C0000041E064E027
S11307D086E390E00E94F8010895CF93C82F0E9409
S11307E0CD03CFB9779BFECFCFB10E94DD038C2F11
S11307F0CF9108950E946E020895CF93DF93D82F6E
S1130800C62F0E94300320E1D29FC00111248F59CA
S11308109F4F0E94050360E081E00E94180320E1DD
S1130820C29FC00111248F599F4F0E9405038FEF6F
S113083094E32CE0815090402040E1F700C0000098
S1130840DF91CF91089541E060E080E390E00E9461
S1130850DC0140E061E080E390E00E94DC018AB1C9
S113086088618AB980B5866880BD89E189B90895AF
S11308708CB95E9BFECF8BB18F7B8BB908955F9B48
S1130880FECF8BB18F778BB98CB10895F894FFCFDD
S113089014436F6E74726F6C204543550000000062
S11308A0004163747561746F722045435500000004
S11308B000436F6E74726F6C204275730000000009
S11308C000425420506565720000000000000000E2
S11308D0004254205065657220506169726564005D
S11308E000496E76616C69642050554944000000EB
S11308F00056616C696420505549440000000000B2
S1130900005265717565737420446F6E6521000033
S11309100053656E6420746F2042542050656572E4
S113092000434D4420427573205065657273000086
S113093000496E76616C69642052657175657374E3
S1130940215374617274696E672E2E2E3E3E3E2EC4
S11309502E496E76616C69642050656572000000F2
S113096000536C6176652052656164790000000073
S1130970004E6F7420436F6E6E656374656400008F
S1130980005061697265640000000000000000000E
S1130990004D6173746572205265616479000000D2
S11309A00070656E64696E6720696E70757400000E
S11309B00050726F63656564696E672E2E2E0000A9
S11309C000496E76616C69642044657669636521CB
S11309D000496E76616C6964204F7074696F6E2192
S11309E0005065657220556E617661696C61626C58
S11309F0654E6F7420696E2053796E6300000000A9
S1130A0000496E76616C696420526573706F6E7311
S1130A106552657175657374696E6720526561739B
S1130A206F4465766963652053656C6563746564BA
S1130A30004F702053656C656374656400000000AA
S1130A40004465762F4F702053656C65637465644C
S1130A5000526573706F6E73652053656E74000089
S1130A6000446576696365203A20000000000000B8
S1130A7000524541445921000000000000000000DC
S1130A8000416C72656164792052756E6E696E679F
S1130A900056616C69642053656C656374696F6E9C
S1130AA000494E56414C494400000000000000003B
S1130AB000446576696365204F7000000000000003
S1130AC0004150504C494544210000000000000002
S1130AD000436F6E74726F6C2053797374656D008C
S1130AE0004163747561746F722053797374656D1A
S1130AF00053656C656374656400000000000000C9
S1130B00004F70205374617475733A2E2E000000E8
S1130B1000446F6E6521000000000000000000002A
S1130B200053656C656374696F6E204552524F5271
S1130B3021526571756573743A2E2E2E00000000E3
S1130B40004354524C204143542053797374656DCF
S1130B500053656E64204231204661696C6564000F
S1130B600053656E64204232204661696C656400FE
S1130B700053656E6420436D64204661696C65644E
S1130B800000000000000000000000000000000061
S1050B9000005F
S9030000FC
