:100000000C942A000C9447000C9447000C94470071
:100010000C9447000C9447000C9447000C94470044
:100020000C9447000C9447000C9447000C94470034
:100030000C9447000C9447000C9447000C94470024
:100040000C9447000C9447000C9447000C94470014
:100050000C94470011241FBECFE5D8E0DEBFCDBF12
:1000600013E0A0E6B0E0E4EEF8E002C005900D92E7
:10007000A236B107D9F723E0A2E6B3E001C01D9292
:10008000A536B207E1F70E9469030C9470040C9442
:1000900000000E944D0440E067E080E390E00E9491
:1000A00011020895CF93DF931F92CDB7DEB7198267
:1000B000AE014F5F5F4F67E080E390E00E9449022E
:1000C00089810F90DF91CF910895CF93C82F0E941F
:1000D00052008823E1F38C2F0E946204CF9108958F
:1000E000EF92FF920F931F93CF938C010E945200C7
:1000F0008823E1F3C0E07801EC0EF11C0E94690452
:10010000F7018083CF5FEC2FF0E03197E00FF11F14
:1001100080818D3081F71082CF911F910F91FF90D8
:10012000EF900895CF930E94F70380EA0E9417048E
:10013000C82F0E940704C03B11F481E001C082E097
:10014000CF9108950E94C6030895CF93DF93D82FCF
:100150000E94F7038D2F0E941704C82F0E940704E6
:10016000CF3FB1F3C33011F086E001C085E0DF91ED
:10017000CF910895CF93DF93EC010E94F70387E0BE
:100180000E94170488830E94070488818F3FA9F387
:100190008850823010F484E001C08BE0DF91CF9171
:1001A0000895CF93DF93EC010E94F7038DE00E9446
:1001B000170488830E94070488818F3FA9F38F501A
:1001C000823010F484E001C081E1DF91CF91089585
:1001D0006EE083E00E9427040E9449000E945200C2
:1001E0008823E1F36FE083E00E9427040E94A200CD
:1001F0000E949200823029F46CE00E9427040E9441
:1002000092008230F1F36DE082E00E9427040895AD
:10021000CF93DF93EC010E945200811104C06EE085
:1002200083E00E9427040E9452008823E1F361E1E9
:1002300084E00E942704CE010E9470008881883AE1
:1002400031F06FE285E00E9427048CE001C08AE073
:100250008C3069F38981888362E186E00E942704FB
:10026000DF91CF910895CF93C82F0E946500C231CE
:1002700029F467E088E00E9427040BC0CF3029F4FE
:1002800063E188E00E94270404C064E188E00E94E2
:100290002704CF910895EF92FF921F93CF93DF939E
:1002A0001F92CDB7DEB77C0189E089830E9492005E
:1002B00010E007C065E182E00E9427040E949200DE
:1002C0001F5F823011F41530A8F3153041F48230ED
:1002D00031F466E189E00E94270483E17EC0813029
:1002E000E9F4F70180810E94A50010E009C06EE2E8
:1002F00082E00E942704F70180810E94A5001F5F11
:10030000863011F41A3098F31A3041F4863031F403
:1003100066E189E00E94270483E15FC0FFEF27EADE
:1003200081E6F15020408040E1F700C00000CE019E
:1003300001960E94BA0010E009C067E182E00E94C5
:100340002704CE0101960E94BA001F5F8B3011F482
:100350001A3098F31A3051F48B3041F466E189E099
:100360000E94270483E1F701818337C089818930A6
:1003700049F46FE287E00E94270482E1F70181835C
:1003800084E12BC0883041F568E18AE00E942704AF
:10039000CE0101960E94D10010E009C067E182E021
:1003A0000E942704CE0101960E94D1001F5F813177
:1003B00011F41A3098F31A3051F4813141F466E1A6
:1003C00089E00E94270483E1F701818306C08981C7
:1003D000F701818384E101C083E10F90DF91CF9128
:1003E0001F91FF90EF900895CF930E949200C0E07C
:1003F00009C0823021F465E10E942704C0E00E9418
:100400009200CF5F813011F4C83098F32FEF80E76E
:1004100092E0215080409040E1F700C00000CF9171
:100420000895FC01942F818141E050E09A01062E4D
:1004300002C0220F331F0A94E2F7322F3095832334
:1004400081838181492F50E002C0440F551F6A9576
:10045000E2F74223482B41830895FC01942F8281C7
:1004600041E050E09A01062E02C0220F331F0A9489
:10047000E2F7322F3095832382838281492F50E027
:1004800002C0440F551F6A95E2F74223482B42836E
:100490000895FC01808190E002C0959587956A954A
:1004A000E2F78170FA0180830895CF93C82F40E06E
:1004B00061E086E390E00E942D0240E062E086E386
:1004C00090E00E942D0240E063E086E390E00E940D
:1004D0002D028BB39C2F907F8F70892B8BBB41E0BB
:1004E00063E086E390E00E942D028FE99FE0019790
:1004F000F1F700C0000040E063E086E390E00E9476
:100500002D0220E1C29FC00111249BB39F70892B53
:100510008BBB41E063E086E390E00E942D028FE90F
:100520009FE00197F1F700C0000040E063E086E340
:1005300090E00E942D028FE19EE40197F1F700C048
:100540000000CF91089541E061E086E390E00E94D1
:10055000110241E062E086E390E00E94110241E076
:1005600063E086E390E00E94110241E064E089E3E9
:1005700090E00E94110241E065E089E390E00E9472
:10058000110241E066E089E390E00E94110241E03F
:1005900067E089E390E00E9411022FEF81EE94E082
:1005A000215080409040E1F700C0000083E30E94AA
:1005B000550282E30E94550288E20E9455028CE0B7
:1005C0000E94550281E00E94550286E00E94550279
:1005D00082E00E9455020895CF93C82F41E061E068
:1005E00086E390E00E942D0240E062E086E390E026
:1005F0000E942D0240E063E086E390E00E942D021D
:100600008BB39C2F907F8F70892B8BBB41E063E075
:1006100086E390E00E942D028FE99FE00197F1F7B9
:1006200000C0000040E063E086E390E00E942D02FD
:1006300020E1C29FC00111249BB39F70892B8BBB0B
:1006400041E063E086E390E00E942D028FE99FE0A5
:100650000197F1F700C0000040E063E086E390E01E
:100660000E942D028FE19EE40197F1F700C0000087
:10067000CF9108950F931F93CF938C01C0E003C0D7
:100680000E94EC02CF5FF801EC0FF11D8081811117
:10069000F7CFCF911F910F910895CF93DF9300D0A3
:1006A000CDB7DEB790E8998390EC9A83E1E0F0E073
:1006B000EC0FFD1FE80FF11D8081860F0E9455028F
:1006C0000F900F90DF91CF91089581E00E94550225
:1006D00008950E94A7030E94B403FDCF82E693E031
:1006E0000E9408016FE28BE10E9427040895CF93D6
:1006F00082E693E00E944B01843001F5C0916303D0
:10070000C93041F468E287E20E94270482E10E9436
:1007100033011BC0CF3041F463E189E20E9427041A
:100720008C2F0E94330111C0C03179F464E189E259
:100730000E9427048C2F0E94330107C066E18BE2E0
:100740000E94270483E180936000CF9108950E9466
:1007500024046BE084E20E9427040E94E8006EE11A
:1007600084E20E942704089580916000833129F477
:100770000E94F40184E1809360000E946E038091E6
:100780006000843111F40E947703089540E066E030
:1007900086E390E00E94110241E065E086E390E08C
:1007A0000E94110241E067E086E390E00E9411029E
:1007B00041E064E086E390E00E9411028DB1846123
:1007C0008DB98DB183608DB98DB180648DB941E0F3
:1007D00064E086E390E00E942D022FEF86E791E02F
:1007E000215080409040E1F700C00000089540E0B3
:1007F00064E086E390E00E942D022FEF86E791E00F
:10080000215080409040E1F700C0000008952FEF94
:1008100086E791E0215080409040E1F700C0000061
:1008200041E064E086E390E00E942D020895CF93BA
:10083000C82F0E94F703CFB9779BFECFCFB10E949C
:1008400007048C2FCF9108950E94A3020895CF939F
:10085000DF93D82FC62F0E94650320E1D29FC001ED
:1008600011248F599F4F0E943A0360E081E00E945B
:100870004D0320E1C29FC00111248F599F4F0E9458
:100880003A038FEF94E32CE0815090402040E1F751
:1008900000C00000DF91CF91089541E060E080E367
:1008A00090E00E94110240E061E080E390E00E944D
:1008B00011028AB188618AB980B5866880BD89E1F4
:1008C00089B908958CB95E9BFECF8BB18F7B8BB9B4
:1008D00008955F9BFECF8BB18F778BB98CB1089554
:0408E000F894FFCFBA
:1008E40014436F6E74726F6C204543550000000012
:1008F400004163747561746F7220454355000000B4
:1009040000436F6E74726F6C2042757300000000B8
:100914000042542050656572000000000000000091
:10092400004254205065657220506169726564000C
:1009340000496E76616C696420505549440000009A
:100944000056616C69642050554944000000000061
:10095400005265717565737420446F6E65210000E3
:100964000053656E6420746F204254205065657294
:1009740000434D4420427573205065657273000036
:1009840000496E76616C6964205265717565737493
:10099400215374617274696E672E2E2E3E3E3E2E74
:1009A4002E496E76616C69642050656572000000A2
:1009B40000536C6176652052656164790000000023
:1009C400004E6F7420436F6E6E656374656400003F
:1009D40000506169726564000000000000000000BE
:1009E400004D617374657220526561647900000082
:1009F4000070656E64696E6720696E7075740000BE
:100A04000050726F63656564696E672E2E2E000058
:100A140000496E76616C696420446576696365217A
:100A240000496E76616C6964204F7074696F6E2141
:100A3400005065657220556E617661696C61626C07
:100A4400654E6F7420696E2053796E630000000058
:100A540000496E76616C696420526573706F6E73C1
:100A64006552657175657374696E6720526561734B
:100A74006F4465766963652053656C65637465646A
:100A8400004F702053656C6563746564000000005A
:100A9400004465762F4F702053656C6563746564FC
:100AA40000526573706F6E73652053656E74000039
:100AB40000446576696365203A2000000000000068
:100AC400005245414459210000000000000000008C
:100AD40000416C72656164792052756E6E696E674F
:100AE4000056616C69642053656C656374696F6E4C
:100AF40000494E56414C49440000000000000000EB
:100B040000446576696365204F70000000000000B2
:100B1400004150504C4945442100000000000000B1
:100B240000436F6E74726F6C2053797374656D003B
:100B3400004163747561746F722053797374656DC9
:100B44000053656C65637465640000000000000078
:100B5400004F70205374617475733A2E2E00000098
:100B640000446F6E652100000000000000000000DA
:100B74000053656C656374696F6E204552524F5221
:100B840021526571756573743A2E2E2E0000000093
:100B9400004354524C204143542053797374656D7F
:100BA4000053656E64204231204661696C656400BF
:100BB4000053656E64204232204661696C656400AE
:100BC4000053656E6420436D64204661696C6564FE
:100BD4000000000000000000000000000000000011
:020BE40000000F
:00000001FF
