S01C0000536D6172745F486F6D655F4354524C5F546573742E7372656386
S11300000C942A000C9447000C9447000C9447006D
S11300100C9447000C9447000C9447000C94470040
S11300200C9447000C9447000C9447000C94470030
S11300300C9447000C9447000C9447000C94470020
S11300400C9447000C9447000C9447000C94470010
S11300500C94470011241FBECFE5D8E0DEBFCDBF0E
S113006010E0A0E6B0E0E2E3F8E002C005900D92F3
S1130070AA3EB107D9F720E0AAEEB0E001C01D9274
S1130080AC3EB207E1F70E94F6020C9417040C94FC
S113009000000E94C10340E067E080E390E00E941A
S11300A09E010895CF93DF931F92CDB7DEB71982D7
S11300B0AE014F5F5F4F67E080E390E00E94D6019E
S11300C089810F90DF91CF910895CF93C82F0E941B
S11300D052008823E1F38C2F0E94D603CF91089518
S11300E0CF93DF93EC010E9452008823E1F3CE0109
S11300F00E940404DF91CF910895CF93DF93EC0124
S11301000E9452008823E1F3CE010E94E403DF91B0
S1130110CF910895CF930E94650380EA0E947C03E7
S1130120C82F8823D1F30E947503C03B11F481E0EA
S113013001C082E0CF9108950E943A030895CF93BD
S1130140DF93D82F0E948A00823061F00E946503F9
S11301508D2F0E947C03C82F8823D1F30E9475033E
S11301608C2F01C08BE0DF91CF910895CF93DF9363
S1130170EC010E948A00823071F00E94650386E0DF
S11301800E947C0388830E94750388818750823093
S113019020F484E003C08BE001C08AE0DF91CF91BA
S11301A008950E949C0004C06CE082E00E949203C7
S11301B00E948A008230C1F36DE082E00E949203C3
S11301C00E94490004C06EE083E00E9492030E94F2
S11301D052008823C1F36FE083E00E9492030895E4
S11301E0EC0104C06EE083E00E9492030E9452007E
S11301F08823C1F361E184E00E949203CE010E944E
S11302007D008881883AB1F36CE285E00E94920314
S1130210F1CFCF93C82F0E946500C83041F480E02D
S11302200E94B80367E088E00E94920311C0CA30BC
S113023041F481E00E94B80363E188E00E949203E4
S113024007C082E00E94B80364E188E00E94920340
S1130250CF9108950F931F93CF93DF931F92CDB740
S1130260DEB78C018AE08983F80180810E949F00B7
S11302700EC065E182E00E949203F80180810E9431
S11302809F00EFE5FAEE3197F1F700C000008B30E4
S113029081F3833009F048C0FFEF20E782E0F1509A
S11302A020408040E1F700C00000CE0101960E948A
S11302B0B60011C08B3029F465E182E00E949203FC
S11302C006C08A3021F467E182E00E949203CE01E5
S11302D001960E94B60096EF980F923058F3198158
S11302E0183029F46CE287E00E94920320C0173092
S11302F0E9F468E18AE00E94920389E00E949F0089
S113030089830EC065E182E00E94920389E00E9425
S11303109F008983EFE3FCE93197F1F700C0000007
S113032019811B3079F303C017E001C01CE0812F51
S11303300F90DF91CF911F910F910895FC01942F9D
S1130340818141E050E09A01062E02C0220F331F42
S11303500A94E2F7322F3095832381838181492FD8
S113036050E002C0440F551F6A95E2F74223482B20
S113037041830895FC01942F828141E050E09A0169
S1130380062E02C0220F331F0A94E2F7322F309553
S1130390832382838281492F50E002C0440F551F7A
S11303A06A95E2F74223482B42830895FC01808139
S11303B090E002C0959587956A95E2F78170FA01FD
S11303C080830895CF93C82F40E061E086E390E0F6
S11303D00E94BA0140E062E086E390E00E94BA0124
S11303E040E063E086E390E00E94BA018BB39C2F67
S11303F0907F8F70892B8BBB41E063E086E390E0B4
S11304000E94BA018FE99FE00197F1F700C0000054
S113041040E063E086E390E00E94BA0120E1C29FDD
S1130420C00111249BB39F70892B8BBB41E063E017
S113043086E390E00E94BA018FE99FE00197F1F70B
S113044000C0000040E063E086E390E00E94BA014F
S11304508FE19EE40197F1F700C00000CF91089569
S113046041E061E086E390E00E949E0141E062E0A9
S113047086E390E00E949E0141E063E086E390E021
S11304800E949E0141E064E089E390E00E949E01A5
S113049041E065E089E390E00E949E0141E066E06E
S11304A089E390E00E949E0141E067E089E390E0E7
S11304B00E949E012FEF81EE94E0215080409040F5
S11304C0E1F700C0000083E30E94E20182E30E949E
S11304D0E20188E20E94E2018CE00E94E20181E0F4
S11304E00E94E20186E00E94E20182E00E94E201B1
S11304F00895CF93C82F41E061E086E390E00E9425
S1130500BA0140E062E086E390E00E94BA0140E074
S113051063E086E390E00E94BA018BB39C2F907F46
S11305208F70892B8BBB41E063E086E390E00E94EF
S1130530BA018FE99FE00197F1F700C0000040E0A5
S113054063E086E390E00E94BA0120E1C29FC0010B
S113055011249BB39F70892B8BBB41E063E086E33E
S113056090E00E94BA018FE99FE00197F1F700C083
S1130570000040E063E086E390E00E94BA018FE16E
S11305809EE40197F1F700C00000CF9108950F9306
S11305901F93CF938C01C0E003C00E947902CF5F08
S11305A0F801EC0FF11D80818111F7CFCF911F91DC
S11305B00F910895CF93DF9300D0CDB7DEB790E8C5
S11305C0998390EC9A83E1E0F0E0EC0FFD1FE80FD3
S11305D0F11D8081860F0E94E2010F900F90DF9140
S11305E0CF91089581E00E94E20108950E942803BA
S11305F00E943503FDCF8AEE90E00E94F0006CE289
S11306008BE10E9492030895CF938AEE90E00E94BA
S11306102A01C82F883029F468E287E20E949203F5
S113062012C08A3029F463E189E20E9492030BC06C
S11306308B3029F464E189E20E94920304C066E1EC
S11306408BE20E9492038C2F0E940901CF9108959E
S11306500E9430026BE084E20E9492030E94D10067
S11306606EE184E20E94920308950E94FB020E94BC
S11306700403089541E065E086E390E00E949E0152
S113068041E067E086E390E00E949E0141E064E07F
S113069086E390E00E949E018DB184618DB98DB195
S11306A083608DB98DB180648DB941E064E086E3E7
S11306B090E00E94BA012FEF86E791E0215080403C
S11306C09040E1F700C00000089540E064E086E354
S11306D090E00E94BA012FEF86E791E0215080401C
S11306E09040E1F700C00000089541E064E086E333
S11306F090E00E94BA010895CF93C82F0E94650329
S1130700CFB981E001C08F5F779902C08111FBCF1F
S1130710882311F0CFB101C0C0E00E9475038C2F73
S1130720CF910895CF93DF93D82FC62F0E94F20262
S113073020E1D29FC001112486549F4F0E94C7021A
S113074060E081E00E94DA0220E1C29FC00111242E
S113075086549F4F0E94C7028FEF96E121E181509A
S113076090402040E1F700C00000DF91CF91089550
S11307702EE1829FC0011124805A9F4F0E94700075
S1130780089541E060E080E390E00E949E0140E033
S113079061E080E390E00E949E018AB188618AB999
S11307A080B5866880BD87E689B908958CB95E9B5B
S11307B0FECF8BB18F7B8BB908955F9BFECF8BB13E
S11307C08F778BB98CB10895EF92FF920F931F939B
S11307D0CF938C010E94DD03F8018083C0E008C040
S11307E0CF5F7801EC0EF11C0E94DD03F7018083DA
S11307F0F801EC0FF11D80818111F2CFCF911F918F
S11308000F91FF90EF9008950F931F93CF938C0156
S1130810C0E003C00E94D603CF5FF801EC0FF11DC6
S113082080818111F7CFCF911F910F910895F89492
S1050830FFCFF4
S1130832212121000000000000000000000000004F
S113084200000000000000000000000000000000A2
S11308520000000000000000000000000000000092
S11308620000000000000000000000000000000082
S11308720000000000000000000000000000000072
S1130882000000000000000000005555737264442B
S113089244217273212E7279646479742E21216544
S11308A263656E646464742021676E4470216D6DA7
S10D08B22E642E21212E6D0000009B
S9030000FC
