S01C0000536D6172745F486F6D655F4354524C5F546573742E7372656386
S11300000C942A000C9447000C9447000C9447006D
S11300100C9447000C9447000C9447000C94470040
S11300200C9447000C9447000C9447000C94470030
S11300300C9447000C9447000C9447000C94470020
S11300400C9447000C9447000C9447000C94470010
S11300500C94470011241FBECFE5D8E0DEBFCDBF0E
S113006013E0A0E6B0E0E8E3F8E002C005900D92EA
S1130070AA38B107D9F723E0AAE8B3E001C01D927A
S1130080AC38B207E1F70E94F6020C941A040C94FF
S113009000000E94C40340E067E080E390E00E9417
S11300A09E010895CF93DF931F92CDB7DEB71982D7
S11300B0AE014F5F5F4F67E080E390E00E94D6019E
S11300C089810F90DF91CF910895CF93C82F0E941B
S11300D052008823E1F38C2F0E94D903CF91089515
S11300E0CF93DF93EC010E9452008823E1F3CE0109
S11300F00E940704DF91CF910895CF93DF93EC0121
S11301000E9452008823E1F3CE010E94E703DF91AD
S1130110CF910895CF930E94650380EA0E947C03E7
S1130120C82F8823D1F30E947503C03B11F481E0EA
S113013001C082E0CF9108950E943A030895CF93BD
S1130140DF93D82F0E948A00823061F00E946503F9
S11301508D2F0E947C03C82F8823D1F30E9475033E
S11301608C2F01C08BE0DF91CF910895CF93DF9363
S1130170EC010E948A00823071F00E94650386E0DF
S11301800E947C0388830E94750388818750823093
S113019020F484E003C08BE001C08AE0DF91CF91BA
S11301A008950E94490004C06EE083E00E94950314
S11301B00E9452008823C1F36FE083E00E949503FC
S11301C00E949C0004C06CE082E00E9495030E949F
S11301D08A008230C1F36DE082E00E9495030895A5
S11301E0EC0104C06EE083E00E9495030E9452007B
S11301F08823C1F361E184E00E949503CE010E944B
S11302007D008881883AB1F36CE285E00E94950311
S1130210F1CFCF93C82F0E946500C83041F480E02D
S11302200E94BB0367E088E00E94950311C0CA30B6
S113023041F481E00E94BB0363E188E00E949503DE
S113024007C082E00E94BB0364E188E00E9495033A
S1130250CF9108950F931F93CF93DF931F92CDB740
S1130260DEB78C018AE08983F80180810E949F00B7
S11302700EC065E182E00E949503F80180810E942E
S11302809F00EFE5FAEE3197F1F700C000008B30E4
S113029081F3833009F048C0FFEF20E782E0F1509A
S11302A020408040E1F700C00000CE0101960E948A
S11302B0B60011C08B3029F465E182E00E949503F9
S11302C006C08A3021F467E182E00E949503CE01E2
S11302D001960E94B60096EF980F923058F3198158
S11302E0183029F46CE287E00E94950320C017308F
S11302F0E9F468E18AE00E94950389E00E949F0086
S113030089830EC065E182E00E94950389E00E9422
S11303109F008983EFE3FCE93197F1F700C0000007
S113032019811B3079F303C017E001C01CE0812F51
S11303300F90DF91CF911F910F910895FC01942F9D
S1130340818141E050E09A01062E02C0220F331F42
S11303500A94E2F7322F3095832381838181492FD8
S113036050E002C0440F551F6A95E2F74223482B20
S113037041830895FC01942F828141E050E09A0169
S1130380062E02C0220F331F0A94E2F7322F309553
S1130390832382838281492F50E002C0440F551F7A
S11303A06A95E2F74223482B42830895FC01808139
S11303B090E002C0959587956A95E2F78170FA01FD
S11303C080830895CF93C82F40E061E086E390E0F6
S11303D00E94BA0140E062E086E390E00E94BA0124
S11303E040E063E086E390E00E94BA018BB39C2F67
S11303F0907F8F70892B8BBB41E063E086E390E0B4
S11304000E94BA018FE99FE00197F1F700C0000054
S113041040E063E086E390E00E94BA0120E1C29FDD
S1130420C00111249BB39F70892B8BBB41E063E017
S113043086E390E00E94BA018FE99FE00197F1F70B
S113044000C0000040E063E086E390E00E94BA014F
S11304508FE19EE40197F1F700C00000CF91089569
S113046041E061E086E390E00E949E0141E062E0A9
S113047086E390E00E949E0141E063E086E390E021
S11304800E949E0141E064E089E390E00E949E01A5
S113049041E065E089E390E00E949E0141E066E06E
S11304A089E390E00E949E0141E067E089E390E0E7
S11304B00E949E012FEF81EE94E0215080409040F5
S11304C0E1F700C0000083E30E94E20182E30E949E
S11304D0E20188E20E94E2018CE00E94E20181E0F4
S11304E00E94E20186E00E94E20182E00E94E201B1
S11304F00895CF93C82F41E061E086E390E00E9425
S1130500BA0140E062E086E390E00E94BA0140E074
S113051063E086E390E00E94BA018BB39C2F907F46
S11305208F70892B8BBB41E063E086E390E00E94EF
S1130530BA018FE99FE00197F1F700C0000040E0A5
S113054063E086E390E00E94BA0120E1C29FC0010B
S113055011249BB39F70892B8BBB41E063E086E33E
S113056090E00E94BA018FE99FE00197F1F700C083
S1130570000040E063E086E390E00E94BA018FE16E
S11305809EE40197F1F700C00000CF9108950F9306
S11305901F93CF938C01C0E003C00E947902CF5F08
S11305A0F801EC0FF11D80818111F7CFCF911F91DC
S11305B00F910895CF93DF9300D0CDB7DEB790E8C5
S11305C0998390EC9A83E1E0F0E0EC0FFD1FE80FD3
S11305D0F11D8081860F0E94E2010F900F90DF9140
S11305E0CF91089581E00E94E20108950E942803BA
S11305F00E943503FDCF8AE893E00E94F0006CE28C
S11306008BE10E9495030895CF938AE893E00E94BA
S11306102A01C82F883029F468E287E20E949503F2
S113062012C08A3029F463E189E20E9495030BC069
S11306308B3029F464E189E20E94950304C066E1E9
S11306408BE20E9495038C2F0E940901CF9108959B
S11306500E9492036BE084E20E9495030E94D10001
S11306606EE184E20E94950308950E94FB020E94B9
S11306700403089541E065E086E390E00E949E0152
S113068041E067E086E390E00E949E0141E064E07F
S113069086E390E00E949E018DB184618DB98DB195
S11306A083608DB98DB180648DB941E064E086E3E7
S11306B090E00E94BA012FEF86E791E0215080403C
S11306C09040E1F700C00000089540E064E086E354
S11306D090E00E94BA012FEF86E791E0215080401C
S11306E09040E1F700C00000089541E064E086E333
S11306F090E00E94BA010895CF93C82F0E94650329
S1130700CFB981E001C08F5F779902C08111FBCF1F
S1130710882311F0CFB101C0C0E00E9475038C2F73
S1130720CF9108950E9430020895CF93DF93D82F7C
S1130730C62F0E94F20220E1D29FC00111248654E8
S11307409F4F0E94C70260E081E00E94DA0220E12C
S1130750C29FC001112486549F4F0E94C7028FEF8D
S113076096E121E1815090402040E1F700C0000073
S1130770DF91CF9108952EE1829FC0011124805A08
S11307809F4F0E947000089541E060E080E390E094
S11307900E949E0140E061E080E390E00E949E019F
S11307A08AB188618AB980B5866880BD87E689B9CF
S11307B008958CB95E9BFECF8BB18F7B8BB9089566
S11307C05F9BFECF8BB18F778BB98CB10895EF927D
S11307D0FF920F931F93CF938C010E94E003F801C3
S11307E08083C0E008C0CF5F7801EC0EF11C0E944A
S11307F0E003F7018083F801EC0FF11D8081811182
S1130800F2CFCF911F910F91FF90EF9008950F9326
S11308101F93CF938C01C0E003C00E94D903CF5F24
S1130820F801EC0FF11D80818111F7CFCF911F9159
S10B08300F910895F894FFCF25
S11308385265717565737420446F6E6521000000FC
S11308480000000000000000000000000000496EE5
S113085876616C69642044657669636520526571C4
S1130868756573746564210000000000496E766143
S11308786C6964204F7065726174696F6E2052658B
S113088871756573746564210000436F6E74726FCB
S11308986C20454355000000000041637475617481
S11308A86F722045435500000000436F6E74726FE9
S11308B86C204275730000000000425420506565A6
S11308C872000000000000000000425420506565DA
S11308D872205061697265640000496E76616C69C2
S11308E86420505549440000000056616C69642036
S11308F85055494400000000000052657175657345
S11309087420446F6E652100000053656E64207482
S11309186F204254205065657200434D442042754F
S113092873205065657273000000496E76616C69C6
S113093864205265717565737421537461727469A6
S11309486E672E2E2E3E3E3E2E2E496E76616C69C3
S113095864205065657200000000536C6176652060
S1130968526561647900000000004E6F7420436F83
S11309786E6E656374656400000050616972656435
S1130988000000000000000000004D6173746572EF
S11309982052656164790000000070656E64696EB8
S11309A86720696E70757400000050726F63656526
S11309B864696E672E2E2E000000496E76616C699C
S11309C864204465766963652100496E76616C69C3
S11309D864204F7074696F6E2100506565722055EC
S11309E86E617661696C61626C654E6F7420696EC4
S11309F82053796E630000000000496E76616C69CB
S1130A086420526573706F6E736552657175657392
S1130A1874696E6720526561736F446576696365AE
S1130A282053656C6563746564004F702053656C6E
S1130A38656374656400000000004465762F4F7098
S1130A482053656C656374656400526573706F6EDA
S1130A5873652053656E74000000446576696365A8
S1130A68202D200000000000000052454144592177
S1130A7800000000000000000000416C7265616421
S1130A88792052756E6E696E670056616C696420D0
S1130A9853656C656374696F6E00494E56414C49E1
S1130AA844000000000000000000446576696365A6
S1130AB8204F70000000000000004150504C494590
S1130AC844210000000000000000436F6E74726F40
S1130AD86C2053797374656D000041637475617497
S1130AE86F722053797374656D0052656164792E51
S1130AF80000000000000000000053656C6563748A
S1130B08656400000000000000004F702053746109
S1130B187475733A2E2E00000000446F6E65210030
S1130B280000000000000000000053656C65637459
S1130B38696F6E204552524F522152657175657323
S1130B48743A2E2E2E00000000004354524C2041CB
S10D0B5843542053797374656D0053
S9030000FC
