:100000000C942A000C9447000C9447000C94470071
:100010000C9447000C9447000C9447000C94470044
:100020000C9447000C9447000C9447000C94470034
:100030000C9447000C9447000C9447000C94470024
:100040000C9447000C9447000C9447000C94470014
:100050000C94470011241FBECFE5D8E0DEBFCDBF12
:1000600013E0A0E6B0E0E6E4F8E002C005900D92EF
:10007000A236B107D9F723E0A2E6B3E001C01D9292
:10008000A536B207E1F70E9428030C9421040C94D2
:1000900000000E94FE0340E067E080E390E00E94E1
:1000A000D0010895CF93DF931F92CDB7DEB71982A9
:1000B000AE014F5F5F4F67E080E390E00E9408026F
:1000C00089810F90DF91CF910895CF93C82F0E941F
:1000D00052008823E1F38C2F0E941304CF910895DE
:1000E000EF92FF920F931F93CF938C010E945200C7
:1000F0008823E1F3C0E07801EC0EF11C0E941A04A1
:10010000F7018083CF5FEC2FF0E03197E00FF11F14
:1001100080818D3081F71082CF911F910F91FF90D8
:10012000EF900895CF930E94B10380EA0E94C80324
:10013000C82F0E94C103C03B11F481E001C082E0DE
:10014000CF9108950E94800308950F931F93CF933A
:10015000DF938C01C0E0D0E00E94B10387E00E94F1
:10016000C803F80180830E94C1032196F8018081B1
:100170008850823010F0209779F7823010F484E0B4
:1001800001C08BE0DF91CF911F910F9108950F93E4
:100190001F93CF93DF938C01C0E0D0E00E94B103A6
:1001A0008DE00E94C803F80180830E94C10321965C
:1001B000F80180818F50823010F0209779F78230DB
:1001C00010F484E001C081E1DF91CF911F910F9184
:1001D00008956EE083E00E94D8030E9449000E94C7
:1001E00052008823E1F36FE083E00E94D8030E946D
:1001F000A2000E949200823029F46CE00E94D80391
:100200000E9492008230F1F36DE082E00E94D803F8
:100210000895CF93DF93EC010E945200811104C036
:100220006EE083E00E94D8030E9452008823E1F32D
:1002300061E184E00E94D803CE010E9470008881B1
:10024000883A31F06FE285E00E94D8038CE001C06B
:100250008AE08C3069F38981888362E186E00E94BC
:10026000D803DF91CF910895CF93C82F0E946500E6
:10027000C23129F467E088E00E94D8030BC0CF3078
:1002800029F463E188E00E94D80304C064E188E0B7
:100290000E94D803CF910895EF92FF921F93CF93BE
:1002A000DF931F92CDB7DEB77C018BE089832FEF00
:1002B00087EA91E6215080409040E1F700C00000BD
:1002C000CE0101960E94A50010E010C0193049F43B
:1002D0008B3039F466E189E00E94D80383E1F701AD
:1002E0008183CE0101960E94A5001F5F8B3011F41F
:1002F0001A3060F38981893041F46FE287E00E940F
:10030000D80382E1F701818327C0883011F568E1C5
:100310008AE00E94D803CE0101960E94C70010E037
:1003200010C0193049F4813139F466E189E00E9446
:10033000D80383E1F7018183CE0101960E94C700B3
:100340001F5F813111F41A3060F38981F7018183D5
:1003500003C083E1F70181830F90DF91CF911F915B
:10036000FF90EF900895CF930E949200C0E009C0E3
:10037000823021F465E10E94D803C0E00E9492001F
:10038000CF5F813011F4C83098F32FEF80E792E00F
:10039000215080409040E1F700C00000CF910895C7
:1003A000FC01942F818141E050E09A01062E02C0A9
:1003B000220F331F0A94E2F7322F30958323818373
:1003C0008181492F50E002C0440F551F6A95E2F722
:1003D0004223482B41830895FC01942F828141E000
:1003E00050E09A01062E02C0220F331F0A94E2F752
:1003F000322F3095832382838281492F50E002C0BF
:10040000440F551F6A95E2F74223482B4283089513
:10041000FC01808190E002C0959587956A95E2F78E
:100420008170FA0180830895CF93C82F40E061E086
:1004300086E390E00E94EC0140E062E086E390E019
:100440000E94EC0140E063E086E390E00E94EC0152
:100450008BB39C2F907F8F70892B8BBB41E063E027
:1004600086E390E00E94EC018FE99FE00197F1F7AD
:1004700000C0000040E063E086E390E00E94EC01F1
:1004800020E1C29FC00111249BB39F70892B8BBBBD
:1004900041E063E086E390E00E94EC018FE99FE099
:1004A0000197F1F700C0000040E063E086E390E0D0
:1004B0000E94EC018FE19EE40197F1F700C000007B
:1004C000CF91089541E061E086E390E00E94D00181
:1004D00041E062E086E390E00E94D00141E063E009
:1004E00086E390E00E94D00141E064E089E390E07F
:1004F0000E94D00141E065E089E390E00E94D001D4
:1005000041E066E089E390E00E94D00141E067E0CD
:1005100089E390E00E94D0012FEF81EE94E021501A
:1005200080409040E1F700C0000083E30E94140285
:1005300082E30E94140288E20E9414028CE00E946E
:10054000140281E00E94140286E00E94140282E0FC
:100550000E9414020895CF93C82F41E061E086E322
:1005600090E00E94EC0140E062E086E390E00E94AF
:10057000EC0140E063E086E390E00E94EC018BB385
:100580009C2F907F8F70892B8BBB41E063E086E3CB
:1005900090E00E94EC018FE99FE00197F1F700C025
:1005A000000040E063E086E390E00E94EC0120E17F
:1005B000C29FC00111249BB39F70892B8BBB41E06C
:1005C00063E086E390E00E94EC018FE99FE00197F1
:1005D000F1F700C0000040E063E086E390E00E9495
:1005E000EC018FE19EE40197F1F700C00000CF918C
:1005F00008950F931F93CF938C01C0E003C00E9416
:10060000AB02CF5FF801EC0FF11D80818111F7CFB4
:10061000CF911F910F910895CF93DF9300D0CDB765
:10062000DEB790E8998390EC9A83E1E0F0E0EC0F7C
:10063000FD1FE80FF11D8081860F0E9414020F90AC
:100640000F90DF91CF91089581E00E9414020895E8
:100650000E9464030E947103FDCF82E693E00E9432
:1006600009016FE28BE10E94D8030895CF9382E6DF
:1006700093E00E944C01C0916303C23141F468E2EF
:1006800087E20E94D8038C2F0E9434011BC0CF3018
:1006900041F463E189E20E94D8038C2F0E94340167
:1006A00011C0C03141F464E189E20E94D8038C2F6B
:1006B0000E94340107C066E18BE20E94D80383E107
:1006C00080936000CF9108950E94D5036BE084E28F
:1006D0000E94D8030E94E9006EE184E20E94D803E0
:1006E000089580916000833111F40E94B3010E944B
:1006F0002D0380916000843111F40E943603089527
:1007000040E066E086E390E00E94D00141E065E0D1
:1007100086E390E00E94D00141E067E086E390E04C
:100720000E94D00141E064E086E390E00E94D001A5
:100730008DB184618DB98DB183608DB98DB18064C7
:100740008DB941E064E086E390E00E94EC012FEF78
:1007500086E791E0215080409040E1F700C0000022
:10076000089540E064E086E390E00E94EC012FEF02
:1007700086E791E0215080409040E1F700C0000002
:10078000089541E064E086E390E00E94EC01089562
:10079000CF93C82F0E94B103CFB9779BFECFCFB1C3
:1007A0000E94C1038C2FCF9108950E946202089588
:1007B000CF93DF93D82FC62F0E94240320E1D29F2E
:1007C000C00111248F599F4F0E94F90260E081E01F
:1007D0000E940C0320E1C29FC00111248F599F4F3A
:1007E0000E94F9028FEF94E32CE08150904020406A
:1007F000E1F700C00000DF91CF91089541E060E093
:1008000080E390E00E94D00140E061E080E390E06E
:100810000E94D0018AB188618AB980B5866880BD9E
:1008200089E189B908958CB95E9BFECF8BB18F7B2E
:100830008BB908955F9BFECF8BB18F778BB98CB14D
:060840000895F894FFCFBB
:1008460014436F6E74726F6C2045435500000000B0
:10085600004163747561746F722045435500000052
:1008660000436F6E74726F6C204275730000000057
:100876000042542050656572000000000000000030
:1008860000425420506565722050616972656400AB
:1008960000496E76616C6964205055494400000039
:1008A6000056616C69642050554944000000000000
:1008B600005265717565737420446F6E6521000082
:1008C6000053656E6420746F204254205065657233
:1008D60000434D44204275732050656572730000D5
:1008E60000496E76616C6964205265717565737432
:1008F600215374617274696E672E2E2E3E3E3E2E13
:100906002E496E76616C6964205065657200000040
:1009160000536C61766520526561647900000000C1
:10092600004E6F7420436F6E6E65637465640000DD
:10093600005061697265640000000000000000005C
:10094600004D617374657220526561647900000020
:100956000070656E64696E6720696E70757400005C
:100966000050726F63656564696E672E2E2E0000F7
:1009760000496E76616C6964204465766963652119
:1009860000496E76616C6964204F7074696F6E21E0
:10099600005065657220556E617661696C61626CA6
:1009A600654E6F7420696E2053796E6300000000F7
:1009B60000496E76616C696420526573706F6E7360
:1009C6006552657175657374696E672052656173EA
:1009D6006F4465766963652053656C656374656409
:1009E600004F702053656C656374656400000000F9
:1009F600004465762F4F702053656C65637465649B
:100A060000526573706F6E73652053656E740000D7
:100A160000446576696365203A2000000000000006
:100A2600005245414459210000000000000000002A
:100A360000416C72656164792052756E6E696E67ED
:100A46000056616C69642053656C656374696F6EEA
:100A560000494E56414C4944000000000000000089
:100A660000446576696365204F7000000000000051
:100A7600004150504C494544210000000000000050
:100A860000436F6E74726F6C2053797374656D00DA
:100A9600004163747561746F722053797374656D68
:100AA6000053656C65637465640000000000000017
:100AB600004F70205374617475733A2E2E00000037
:100AC60000446F6E65210000000000000000000079
:100AD6000053656C656374696F6E204552524F52C0
:100AE60021526571756573743A2E2E2E0000000032
:100AF600004354524C204143542053797374656D1E
:100B06000053656E64204231204661696C6564005D
:100B16000053656E64204232204661696C6564004C
:100B26000053656E6420436D64204661696C65649C
:100B360000000000000000000000000000000000AF
:020B46000000AD
:00000001FF
